{
  "_format": "hh-sol-artifact-1",
  "contractName": "crossBridge",
  "sourceName": "contracts/crossBridge.sol",
  "abi": [
    {
      "inputs": [
        {
          "internalType": "string",
          "name": "name_",
          "type": "string"
        },
        {
          "internalType": "string",
          "name": "symbol_",
          "type": "string"
        }
      ],
      "stateMutability": "nonpayable",
      "type": "constructor"
    },
    {
      "anonymous": false,
      "inputs": [
        {
          "indexed": true,
          "internalType": "address",
          "name": "owner",
          "type": "address"
        },
        {
          "indexed": true,
          "internalType": "address",
          "name": "spender",
          "type": "address"
        },
        {
          "indexed": false,
          "internalType": "uint256",
          "name": "value",
          "type": "uint256"
        }
      ],
      "name": "Approval",
      "type": "event"
    },
    {
      "anonymous": false,
      "inputs": [
        {
          "indexed": true,
          "internalType": "address",
          "name": "user",
          "type": "address"
        },
        {
          "indexed": false,
          "internalType": "uint256",
          "name": "amount",
          "type": "uint256"
        }
      ],
      "name": "Bridge",
      "type": "event"
    },
    {
      "anonymous": false,
      "inputs": [
        {
          "indexed": true,
          "internalType": "address",
          "name": "from",
          "type": "address"
        },
        {
          "indexed": true,
          "internalType": "address",
          "name": "to",
          "type": "address"
        },
        {
          "indexed": false,
          "internalType": "uint256",
          "name": "value",
          "type": "uint256"
        }
      ],
      "name": "Transfer",
      "type": "event"
    },
    {
      "inputs": [
        {
          "internalType": "address",
          "name": "",
          "type": "address"
        },
        {
          "internalType": "address",
          "name": "",
          "type": "address"
        }
      ],
      "name": "allowance",
      "outputs": [
        {
          "internalType": "uint256",
          "name": "",
          "type": "uint256"
        }
      ],
      "stateMutability": "view",
      "type": "function"
    },
    {
      "inputs": [
        {
          "internalType": "address",
          "name": "spender",
          "type": "address"
        },
        {
          "internalType": "uint256",
          "name": "amount",
          "type": "uint256"
        }
      ],
      "name": "approve",
      "outputs": [
        {
          "internalType": "bool",
          "name": "",
          "type": "bool"
        }
      ],
      "stateMutability": "nonpayable",
      "type": "function"
    },
    {
      "inputs": [
        {
          "internalType": "address",
          "name": "",
          "type": "address"
        }
      ],
      "name": "balanceOf",
      "outputs": [
        {
          "internalType": "uint256",
          "name": "",
          "type": "uint256"
        }
      ],
      "stateMutability": "view",
      "type": "function"
    },
    {
      "inputs": [
        {
          "internalType": "uint256",
          "name": "amount",
          "type": "uint256"
        }
      ],
      "name": "bridge",
      "outputs": [],
      "stateMutability": "nonpayable",
      "type": "function"
    },
    {
      "inputs": [
        {
          "internalType": "uint256",
          "name": "amount",
          "type": "uint256"
        }
      ],
      "name": "burn",
      "outputs": [],
      "stateMutability": "nonpayable",
      "type": "function"
    },
    {
      "inputs": [],
      "name": "decimals",
      "outputs": [
        {
          "internalType": "uint8",
          "name": "",
          "type": "uint8"
        }
      ],
      "stateMutability": "view",
      "type": "function"
    },
    {
      "inputs": [
        {
          "internalType": "uint256",
          "name": "amount",
          "type": "uint256"
        }
      ],
      "name": "mint",
      "outputs": [],
      "stateMutability": "nonpayable",
      "type": "function"
    },
    {
      "inputs": [],
      "name": "name",
      "outputs": [
        {
          "internalType": "string",
          "name": "",
          "type": "string"
        }
      ],
      "stateMutability": "view",
      "type": "function"
    },
    {
      "inputs": [],
      "name": "symbol",
      "outputs": [
        {
          "internalType": "string",
          "name": "",
          "type": "string"
        }
      ],
      "stateMutability": "view",
      "type": "function"
    },
    {
      "inputs": [],
      "name": "totalSupply",
      "outputs": [
        {
          "internalType": "uint256",
          "name": "",
          "type": "uint256"
        }
      ],
      "stateMutability": "view",
      "type": "function"
    },
    {
      "inputs": [
        {
          "internalType": "address",
          "name": "recipient",
          "type": "address"
        },
        {
          "internalType": "uint256",
          "name": "amount",
          "type": "uint256"
        }
      ],
      "name": "transfer",
      "outputs": [
        {
          "internalType": "bool",
          "name": "",
          "type": "bool"
        }
      ],
      "stateMutability": "nonpayable",
      "type": "function"
    },
    {
      "inputs": [
        {
          "internalType": "address",
          "name": "sender",
          "type": "address"
        },
        {
          "internalType": "address",
          "name": "recipient",
          "type": "address"
        },
        {
          "internalType": "uint256",
          "name": "amount",
          "type": "uint256"
        }
      ],
      "name": "transferFrom",
      "outputs": [
        {
          "internalType": "bool",
          "name": "",
          "type": "bool"
        }
      ],
      "stateMutability": "nonpayable",
      "type": "function"
    }
  ],
  "bytecode": "0x60806040526012600560006101000a81548160ff021916908360ff1602179055503480156200002d57600080fd5b506040516200163a3803806200163a8339818101604052810190620000539190620002da565b81600390805190602001906200006b9291906200008d565b508060049080519060200190620000849291906200008d565b505050620003c4565b8280546200009b906200038e565b90600052602060002090601f016020900481019282620000bf57600085556200010b565b82601f10620000da57805160ff19168380011785556200010b565b828001600101855582156200010b579182015b828111156200010a578251825591602001919060010190620000ed565b5b5090506200011a91906200011e565b5090565b5b80821115620001395760008160009055506001016200011f565b5090565b6000604051905090565b600080fd5b600080fd5b600080fd5b600080fd5b6000601f19601f8301169050919050565b7f4e487b7100000000000000000000000000000000000000000000000000000000600052604160045260246000fd5b620001a6826200015b565b810181811067ffffffffffffffff82111715620001c857620001c76200016c565b5b80604052505050565b6000620001dd6200013d565b9050620001eb82826200019b565b919050565b600067ffffffffffffffff8211156200020e576200020d6200016c565b5b62000219826200015b565b9050602081019050919050565b60005b838110156200024657808201518184015260208101905062000229565b8381111562000256576000848401525b50505050565b6000620002736200026d84620001f0565b620001d1565b90508281526020810184848401111562000292576200029162000156565b5b6200029f84828562000226565b509392505050565b600082601f830112620002bf57620002be62000151565b5b8151620002d18482602086016200025c565b91505092915050565b60008060408385031215620002f457620002f362000147565b5b600083015167ffffffffffffffff8111156200031557620003146200014c565b5b6200032385828601620002a7565b925050602083015167ffffffffffffffff8111156200034757620003466200014c565b5b6200035585828601620002a7565b9150509250929050565b7f4e487b7100000000000000000000000000000000000000000000000000000000600052602260045260246000fd5b60006002820490506001821680620003a757607f821691505b60208210811415620003be57620003bd6200035f565b5b50919050565b61126680620003d46000396000f3fe608060405234801561001057600080fd5b50600436106100b45760003560e01c806370a082311161007157806370a082311461018f57806390fd50b3146101bf57806395d89b41146101db578063a0712d68146101f9578063a9059cbb14610215578063dd62ed3e14610245576100b4565b806306fdde03146100b9578063095ea7b3146100d757806318160ddd1461010757806323b872dd14610125578063313ce5671461015557806342966c6814610173575b600080fd5b6100c1610275565b6040516100ce9190610d53565b60405180910390f35b6100f160048036038101906100ec9190610e0e565b610303565b6040516100fe9190610e69565b60405180910390f35b61010f6103f5565b60405161011c9190610e93565b60405180910390f35b61013f600480360381019061013a9190610eae565b6103fb565b60405161014c9190610e69565b60405180910390f35b61015d6107cb565b60405161016a9190610f1d565b60405180910390f35b61018d60048036038101906101889190610f38565b6107de565b005b6101a960048036038101906101a49190610f65565b6108b5565b6040516101b69190610e93565b60405180910390f35b6101d960048036038101906101d49190610f38565b6108cd565b005b6101e3610927565b6040516101f09190610d53565b60405180910390f35b610213600480360381019061020e9190610f38565b6109b5565b005b61022f600480360381019061022a9190610e0e565b610a8c565b60405161023c9190610e69565b60405180910390f35b61025f600480360381019061025a9190610f92565b610c95565b60405161026c9190610e93565b60405180910390f35b6003805461028290611001565b80601f01602080910402602001604051908101604052809291908181526020018280546102ae90611001565b80156102fb5780601f106102d0576101008083540402835291602001916102fb565b820191906000526020600020905b8154815290600101906020018083116102de57829003601f168201915b505050505081565b600081600160003373ffffffffffffffffffffffffffffffffffffffff1673ffffffffffffffffffffffffffffffffffffffff16815260200190815260200160002060008573ffffffffffffffffffffffffffffffffffffffff1673ffffffffffffffffffffffffffffffffffffffff168152602001908152602001600020819055508273ffffffffffffffffffffffffffffffffffffffff163373ffffffffffffffffffffffffffffffffffffffff167f8c5be1e5ebec7d5bd14f71427d1e84f3dd0314c0f7b2291e5b200ac8c7c3b925846040516103e39190610e93565b60405180910390a36001905092915050565b60025481565b600081600160008673ffffffffffffffffffffffffffffffffffffffff1673ffffffffffffffffffffffffffffffffffffffff16815260200190815260200160002060003373ffffffffffffffffffffffffffffffffffffffff1673ffffffffffffffffffffffffffffffffffffffff16815260200190815260200160002054116104bb576040517f08c379a00000000000000000000000000000000000000000000000000000000081526004016104b29061107f565b60405180910390fd5b816000808673ffffffffffffffffffffffffffffffffffffffff1673ffffffffffffffffffffffffffffffffffffffff168152602001908152602001600020541161053b576040517f08c379a0000000000000000000000000000000000000000000000000000000008152600401610532906110eb565b60405180910390fd5b81600160008673ffffffffffffffffffffffffffffffffffffffff1673ffffffffffffffffffffffffffffffffffffffff16815260200190815260200160002060003373ffffffffffffffffffffffffffffffffffffffff1673ffffffffffffffffffffffffffffffffffffffff168152602001908152602001600020546105c3919061113a565b600160008673ffffffffffffffffffffffffffffffffffffffff1673ffffffffffffffffffffffffffffffffffffffff16815260200190815260200160002060003373ffffffffffffffffffffffffffffffffffffffff1673ffffffffffffffffffffffffffffffffffffffff16815260200190815260200160002081905550816000808673ffffffffffffffffffffffffffffffffffffffff1673ffffffffffffffffffffffffffffffffffffffff1681526020019081526020016000205461068d919061113a565b6000808673ffffffffffffffffffffffffffffffffffffffff1673ffffffffffffffffffffffffffffffffffffffff16815260200190815260200160002081905550816000808573ffffffffffffffffffffffffffffffffffffffff1673ffffffffffffffffffffffffffffffffffffffff16815260200190815260200160002054610719919061116e565b6000808573ffffffffffffffffffffffffffffffffffffffff1673ffffffffffffffffffffffffffffffffffffffff168152602001908152602001600020819055508273ffffffffffffffffffffffffffffffffffffffff168473ffffffffffffffffffffffffffffffffffffffff167fddf252ad1be2c89b69c2b068fc378daa952ba7f163c4a11628f55a4df523b3ef846040516107b89190610e93565b60405180910390a3600190509392505050565b600560009054906101000a900460ff1681565b806000803373ffffffffffffffffffffffffffffffffffffffff1673ffffffffffffffffffffffffffffffffffffffff168152602001908152602001600020600082825461082c919061113a565b925050819055508060026000828254610845919061113a565b92505081905550600073ffffffffffffffffffffffffffffffffffffffff163373ffffffffffffffffffffffffffffffffffffffff167fddf252ad1be2c89b69c2b068fc378daa952ba7f163c4a11628f55a4df523b3ef836040516108aa9190610e93565b60405180910390a350565b60006020528060005260406000206000915090505481565b6108d6816107de565b3373ffffffffffffffffffffffffffffffffffffffff167f22e3f162fca16dc0fcfb65eddf406531a0c555a2c24c58cf5d10fc2d202a882e8260405161091c9190610e93565b60405180910390a250565b6004805461093490611001565b80601f016020809104026020016040519081016040528092919081815260200182805461096090611001565b80156109ad5780601f10610982576101008083540402835291602001916109ad565b820191906000526020600020905b81548152906001019060200180831161099057829003601f168201915b505050505081565b806000803373ffffffffffffffffffffffffffffffffffffffff1673ffffffffffffffffffffffffffffffffffffffff1681526020019081526020016000206000828254610a03919061116e565b925050819055508060026000828254610a1c919061116e565b925050819055503373ffffffffffffffffffffffffffffffffffffffff16600073ffffffffffffffffffffffffffffffffffffffff167fddf252ad1be2c89b69c2b068fc378daa952ba7f163c4a11628f55a4df523b3ef83604051610a819190610e93565b60405180910390a350565b6000816000803373ffffffffffffffffffffffffffffffffffffffff1673ffffffffffffffffffffffffffffffffffffffff1681526020019081526020016000205410610b0e576040517f08c379a0000000000000000000000000000000000000000000000000000000008152600401610b0590611210565b60405180910390fd5b816000803373ffffffffffffffffffffffffffffffffffffffff1673ffffffffffffffffffffffffffffffffffffffff16815260200190815260200160002054610b58919061113a565b6000803373ffffffffffffffffffffffffffffffffffffffff1673ffffffffffffffffffffffffffffffffffffffff168152602001908152602001600020819055506000808473ffffffffffffffffffffffffffffffffffffffff1673ffffffffffffffffffffffffffffffffffffffff1681526020019081526020016000205482610be4919061116e565b6000808573ffffffffffffffffffffffffffffffffffffffff1673ffffffffffffffffffffffffffffffffffffffff168152602001908152602001600020819055508273ffffffffffffffffffffffffffffffffffffffff163373ffffffffffffffffffffffffffffffffffffffff167fddf252ad1be2c89b69c2b068fc378daa952ba7f163c4a11628f55a4df523b3ef84604051610c839190610e93565b60405180910390a36001905092915050565b6001602052816000526040600020602052806000526040600020600091509150505481565b600081519050919050565b600082825260208201905092915050565b60005b83811015610cf4578082015181840152602081019050610cd9565b83811115610d03576000848401525b50505050565b6000601f19601f8301169050919050565b6000610d2582610cba565b610d2f8185610cc5565b9350610d3f818560208601610cd6565b610d4881610d09565b840191505092915050565b60006020820190508181036000830152610d6d8184610d1a565b905092915050565b600080fd5b600073ffffffffffffffffffffffffffffffffffffffff82169050919050565b6000610da582610d7a565b9050919050565b610db581610d9a565b8114610dc057600080fd5b50565b600081359050610dd281610dac565b92915050565b6000819050919050565b610deb81610dd8565b8114610df657600080fd5b50565b600081359050610e0881610de2565b92915050565b60008060408385031215610e2557610e24610d75565b5b6000610e3385828601610dc3565b9250506020610e4485828601610df9565b9150509250929050565b60008115159050919050565b610e6381610e4e565b82525050565b6000602082019050610e7e6000830184610e5a565b92915050565b610e8d81610dd8565b82525050565b6000602082019050610ea86000830184610e84565b92915050565b600080600060608486031215610ec757610ec6610d75565b5b6000610ed586828701610dc3565b9350506020610ee686828701610dc3565b9250506040610ef786828701610df9565b9150509250925092565b600060ff82169050919050565b610f1781610f01565b82525050565b6000602082019050610f326000830184610f0e565b92915050565b600060208284031215610f4e57610f4d610d75565b5b6000610f5c84828501610df9565b91505092915050565b600060208284031215610f7b57610f7a610d75565b5b6000610f8984828501610dc3565b91505092915050565b60008060408385031215610fa957610fa8610d75565b5b6000610fb785828601610dc3565b9250506020610fc885828601610dc3565b9150509250929050565b7f4e487b7100000000000000000000000000000000000000000000000000000000600052602260045260246000fd5b6000600282049050600182168061101957607f821691505b6020821081141561102d5761102c610fd2565b5b50919050565b7f616d6f756e743100000000000000000000000000000000000000000000000000600082015250565b6000611069600783610cc5565b915061107482611033565b602082019050919050565b600060208201905081810360008301526110988161105c565b9050919050565b7f616d6f756e743200000000000000000000000000000000000000000000000000600082015250565b60006110d5600783610cc5565b91506110e08261109f565b602082019050919050565b60006020820190508181036000830152611104816110c8565b9050919050565b7f4e487b7100000000000000000000000000000000000000000000000000000000600052601160045260246000fd5b600061114582610dd8565b915061115083610dd8565b9250828210156111635761116261110b565b5b828203905092915050565b600061117982610dd8565b915061118483610dd8565b9250827fffffffffffffffffffffffffffffffffffffffffffffffffffffffffffffffff038211156111b9576111b861110b565b5b828201905092915050565b7f616d6f756e740000000000000000000000000000000000000000000000000000600082015250565b60006111fa600683610cc5565b9150611205826111c4565b602082019050919050565b60006020820190508181036000830152611229816111ed565b905091905056fea2646970667358221220533ef318d40d76a7aaf859d8cb962c3ac4d0e03420a0846c447b0160bd98fe5364736f6c63430008090033",
  "linkReferences": {},
  "deployedLinkReferences": {}
}