{
  "_format": "hh-sol-artifact-1",
  "contractName": "MyNFT",
  "sourceName": "contracts/myNft.sol",
  "abi": [
    {
      "inputs": [],
      "stateMutability": "nonpayable",
      "type": "constructor"
    },
    {
      "inputs": [],
      "name": "MyToken_safeMint",
      "type": "error"
    },
    {
      "anonymous": false,
      "inputs": [
        {
          "indexed": true,
          "internalType": "address",
          "name": "owner",
          "type": "address"
        },
        {
          "indexed": true,
          "internalType": "address",
          "name": "approved",
          "type": "address"
        },
        {
          "indexed": true,
          "internalType": "uint256",
          "name": "tokenId",
          "type": "uint256"
        }
      ],
      "name": "Approval",
      "type": "event"
    },
    {
      "anonymous": false,
      "inputs": [
        {
          "indexed": true,
          "internalType": "address",
          "name": "owner",
          "type": "address"
        },
        {
          "indexed": true,
          "internalType": "address",
          "name": "operator",
          "type": "address"
        },
        {
          "indexed": false,
          "internalType": "bool",
          "name": "approved",
          "type": "bool"
        }
      ],
      "name": "ApprovalForAll",
      "type": "event"
    },
    {
      "anonymous": false,
      "inputs": [
        {
          "indexed": false,
          "internalType": "uint256",
          "name": "_fromTokenId",
          "type": "uint256"
        },
        {
          "indexed": false,
          "internalType": "uint256",
          "name": "_toTokenId",
          "type": "uint256"
        }
      ],
      "name": "BatchMetadataUpdate",
      "type": "event"
    },
    {
      "anonymous": false,
      "inputs": [
        {
          "indexed": false,
          "internalType": "uint256",
          "name": "_tokenId",
          "type": "uint256"
        }
      ],
      "name": "MetadataUpdate",
      "type": "event"
    },
    {
      "anonymous": false,
      "inputs": [
        {
          "indexed": true,
          "internalType": "address",
          "name": "previousOwner",
          "type": "address"
        },
        {
          "indexed": true,
          "internalType": "address",
          "name": "newOwner",
          "type": "address"
        }
      ],
      "name": "OwnershipTransferred",
      "type": "event"
    },
    {
      "anonymous": false,
      "inputs": [
        {
          "indexed": true,
          "internalType": "address",
          "name": "from",
          "type": "address"
        },
        {
          "indexed": true,
          "internalType": "address",
          "name": "to",
          "type": "address"
        },
        {
          "indexed": true,
          "internalType": "uint256",
          "name": "tokenId",
          "type": "uint256"
        }
      ],
      "name": "Transfer",
      "type": "event"
    },
    {
      "inputs": [
        {
          "internalType": "address",
          "name": "to",
          "type": "address"
        },
        {
          "internalType": "uint256",
          "name": "tokenId",
          "type": "uint256"
        }
      ],
      "name": "approve",
      "outputs": [],
      "stateMutability": "nonpayable",
      "type": "function"
    },
    {
      "inputs": [
        {
          "internalType": "address",
          "name": "owner",
          "type": "address"
        }
      ],
      "name": "balanceOf",
      "outputs": [
        {
          "internalType": "uint256",
          "name": "",
          "type": "uint256"
        }
      ],
      "stateMutability": "view",
      "type": "function"
    },
    {
      "inputs": [
        {
          "internalType": "uint256",
          "name": "tokenId",
          "type": "uint256"
        }
      ],
      "name": "getApproved",
      "outputs": [
        {
          "internalType": "address",
          "name": "",
          "type": "address"
        }
      ],
      "stateMutability": "view",
      "type": "function"
    },
    {
      "inputs": [
        {
          "internalType": "address",
          "name": "owner",
          "type": "address"
        },
        {
          "internalType": "address",
          "name": "operator",
          "type": "address"
        }
      ],
      "name": "isApprovedForAll",
      "outputs": [
        {
          "internalType": "bool",
          "name": "",
          "type": "bool"
        }
      ],
      "stateMutability": "view",
      "type": "function"
    },
    {
      "inputs": [],
      "name": "name",
      "outputs": [
        {
          "internalType": "string",
          "name": "",
          "type": "string"
        }
      ],
      "stateMutability": "view",
      "type": "function"
    },
    {
      "inputs": [],
      "name": "owner",
      "outputs": [
        {
          "internalType": "address",
          "name": "",
          "type": "address"
        }
      ],
      "stateMutability": "view",
      "type": "function"
    },
    {
      "inputs": [
        {
          "internalType": "uint256",
          "name": "tokenId",
          "type": "uint256"
        }
      ],
      "name": "ownerOf",
      "outputs": [
        {
          "internalType": "address",
          "name": "",
          "type": "address"
        }
      ],
      "stateMutability": "view",
      "type": "function"
    },
    {
      "inputs": [],
      "name": "renounceOwnership",
      "outputs": [],
      "stateMutability": "nonpayable",
      "type": "function"
    },
    {
      "inputs": [
        {
          "internalType": "address",
          "name": "to",
          "type": "address"
        },
        {
          "internalType": "string",
          "name": "uri",
          "type": "string"
        }
      ],
      "name": "safeMint",
      "outputs": [],
      "stateMutability": "nonpayable",
      "type": "function"
    },
    {
      "inputs": [
        {
          "internalType": "address",
          "name": "from",
          "type": "address"
        },
        {
          "internalType": "address",
          "name": "to",
          "type": "address"
        },
        {
          "internalType": "uint256",
          "name": "tokenId",
          "type": "uint256"
        }
      ],
      "name": "safeTransferFrom",
      "outputs": [],
      "stateMutability": "nonpayable",
      "type": "function"
    },
    {
      "inputs": [
        {
          "internalType": "address",
          "name": "from",
          "type": "address"
        },
        {
          "internalType": "address",
          "name": "to",
          "type": "address"
        },
        {
          "internalType": "uint256",
          "name": "tokenId",
          "type": "uint256"
        },
        {
          "internalType": "bytes",
          "name": "data",
          "type": "bytes"
        }
      ],
      "name": "safeTransferFrom",
      "outputs": [],
      "stateMutability": "nonpayable",
      "type": "function"
    },
    {
      "inputs": [
        {
          "internalType": "address",
          "name": "operator",
          "type": "address"
        },
        {
          "internalType": "bool",
          "name": "approved",
          "type": "bool"
        }
      ],
      "name": "setApprovalForAll",
      "outputs": [],
      "stateMutability": "nonpayable",
      "type": "function"
    },
    {
      "inputs": [
        {
          "internalType": "bytes4",
          "name": "interfaceId",
          "type": "bytes4"
        }
      ],
      "name": "supportsInterface",
      "outputs": [
        {
          "internalType": "bool",
          "name": "",
          "type": "bool"
        }
      ],
      "stateMutability": "view",
      "type": "function"
    },
    {
      "inputs": [],
      "name": "symbol",
      "outputs": [
        {
          "internalType": "string",
          "name": "",
          "type": "string"
        }
      ],
      "stateMutability": "view",
      "type": "function"
    },
    {
      "inputs": [
        {
          "internalType": "uint256",
          "name": "tokenId",
          "type": "uint256"
        }
      ],
      "name": "tokenURI",
      "outputs": [
        {
          "internalType": "string",
          "name": "",
          "type": "string"
        }
      ],
      "stateMutability": "view",
      "type": "function"
    },
    {
      "inputs": [
        {
          "internalType": "address",
          "name": "from",
          "type": "address"
        },
        {
          "internalType": "address",
          "name": "to",
          "type": "address"
        },
        {
          "internalType": "uint256",
          "name": "tokenId",
          "type": "uint256"
        }
      ],
      "name": "transferFrom",
      "outputs": [],
      "stateMutability": "nonpayable",
      "type": "function"
    },
    {
      "inputs": [
        {
          "internalType": "address",
          "name": "newOwner",
          "type": "address"
        }
      ],
      "name": "transferOwnership",
      "outputs": [],
      "stateMutability": "nonpayable",
      "type": "function"
    }
  ],
  "bytecode": "0x60806040526127106008553480156200001757600080fd5b506040518060400160405280600581526020017f4d794e46540000000000000000000000000000000000000000000000000000008152506040518060400160405280600381526020017f4d544b0000000000000000000000000000000000000000000000000000000000815250816000908162000095919062000418565b508060019081620000a7919062000418565b505050620000ca620000be620000d060201b60201c565b620000d860201b60201c565b620004ff565b600033905090565b6000600760009054906101000a900473ffffffffffffffffffffffffffffffffffffffff16905081600760006101000a81548173ffffffffffffffffffffffffffffffffffffffff021916908373ffffffffffffffffffffffffffffffffffffffff1602179055508173ffffffffffffffffffffffffffffffffffffffff168173ffffffffffffffffffffffffffffffffffffffff167f8be0079c531659141344cd1fd0a4f28419497f9722a3daafe3b4186f6b6457e060405160405180910390a35050565b600081519050919050565b7f4e487b7100000000000000000000000000000000000000000000000000000000600052604160045260246000fd5b7f4e487b7100000000000000000000000000000000000000000000000000000000600052602260045260246000fd5b600060028204905060018216806200022057607f821691505b602082108103620002365762000235620001d8565b5b50919050565b60008190508160005260206000209050919050565b60006020601f8301049050919050565b600082821b905092915050565b600060088302620002a07fffffffffffffffffffffffffffffffffffffffffffffffffffffffffffffffff8262000261565b620002ac868362000261565b95508019841693508086168417925050509392505050565b6000819050919050565b6000819050919050565b6000620002f9620002f3620002ed84620002c4565b620002ce565b620002c4565b9050919050565b6000819050919050565b6200031583620002d8565b6200032d620003248262000300565b8484546200026e565b825550505050565b600090565b6200034462000335565b620003518184846200030a565b505050565b5b8181101562000379576200036d6000826200033a565b60018101905062000357565b5050565b601f821115620003c85762000392816200023c565b6200039d8462000251565b81016020851015620003ad578190505b620003c5620003bc8562000251565b83018262000356565b50505b505050565b600082821c905092915050565b6000620003ed60001984600802620003cd565b1980831691505092915050565b6000620004088383620003da565b9150826002028217905092915050565b62000423826200019e565b67ffffffffffffffff8111156200043f576200043e620001a9565b5b6200044b825462000207565b620004588282856200037d565b600060209050601f8311600181146200049057600084156200047b578287015190505b620004878582620003fa565b865550620004f7565b601f198416620004a0866200023c565b60005b82811015620004ca57848901518255600182019150602085019450602081019050620004a3565b86831015620004ea5784890151620004e6601f891682620003da565b8355505b6001600288020188555050505b505050505050565b612f0d806200050f6000396000f3fe608060405234801561001057600080fd5b506004361061010b5760003560e01c8063715018a6116100a2578063b88d4fde11610071578063b88d4fde146102a4578063c87b56dd146102c0578063d204c45e146102f0578063e985e9c51461030c578063f2fde38b1461033c5761010b565b8063715018a6146102425780638da5cb5b1461024c57806395d89b411461026a578063a22cb465146102885761010b565b806323b872dd116100de57806323b872dd146101aa57806342842e0e146101c65780636352211e146101e257806370a08231146102125761010b565b806301ffc9a71461011057806306fdde0314610140578063081812fc1461015e578063095ea7b31461018e575b600080fd5b61012a60048036038101906101259190611cfe565b610358565b6040516101379190611d46565b60405180910390f35b61014861036a565b6040516101559190611df1565b60405180910390f35b61017860048036038101906101739190611e49565b6103fc565b6040516101859190611eb7565b60405180910390f35b6101a860048036038101906101a39190611efe565b610442565b005b6101c460048036038101906101bf9190611f3e565b610559565b005b6101e060048036038101906101db9190611f3e565b6105b9565b005b6101fc60048036038101906101f79190611e49565b6105d9565b6040516102099190611eb7565b60405180910390f35b61022c60048036038101906102279190611f91565b61065f565b6040516102399190611fcd565b60405180910390f35b61024a610716565b005b61025461072a565b6040516102619190611eb7565b60405180910390f35b610272610754565b60405161027f9190611df1565b60405180910390f35b6102a2600480360381019061029d9190612014565b6107e6565b005b6102be60048036038101906102b99190612189565b6107fc565b005b6102da60048036038101906102d59190611e49565b61085e565b6040516102e79190611df1565b60405180910390f35b61030a600480360381019061030591906122ad565b610870565b005b61032660048036038101906103219190612309565b6108e4565b6040516103339190611d46565b60405180910390f35b61035660048036038101906103519190611f91565b610978565b005b6000610363826109fb565b9050919050565b60606000805461037990612378565b80601f01602080910402602001604051908101604052809291908181526020018280546103a590612378565b80156103f25780601f106103c7576101008083540402835291602001916103f2565b820191906000526020600020905b8154815290600101906020018083116103d557829003601f168201915b5050505050905090565b600061040782610a5c565b6004600083815260200190815260200160002060009054906101000a900473ffffffffffffffffffffffffffffffffffffffff169050919050565b600061044d826105d9565b90508073ffffffffffffffffffffffffffffffffffffffff168373ffffffffffffffffffffffffffffffffffffffff16036104bd576040517f08c379a00000000000000000000000000000000000000000000000000000000081526004016104b49061241b565b60405180910390fd5b8073ffffffffffffffffffffffffffffffffffffffff166104dc610aa7565b73ffffffffffffffffffffffffffffffffffffffff16148061050b575061050a81610505610aa7565b6108e4565b5b61054a576040517f08c379a0000000000000000000000000000000000000000000000000000000008152600401610541906124ad565b60405180910390fd5b6105548383610aaf565b505050565b61056a610564610aa7565b82610b68565b6105a9576040517f08c379a00000000000000000000000000000000000000000000000000000000081526004016105a09061253f565b60405180910390fd5b6105b4838383610bfd565b505050565b6105d4838383604051806020016040528060008152506107fc565b505050565b6000806105e583610ef6565b9050600073ffffffffffffffffffffffffffffffffffffffff168173ffffffffffffffffffffffffffffffffffffffff1603610656576040517f08c379a000000000000000000000000000000000000000000000000000000000815260040161064d906125ab565b60405180910390fd5b80915050919050565b60008073ffffffffffffffffffffffffffffffffffffffff168273ffffffffffffffffffffffffffffffffffffffff16036106cf576040517f08c379a00000000000000000000000000000000000000000000000000000000081526004016106c69061263d565b60405180910390fd5b600360008373ffffffffffffffffffffffffffffffffffffffff1673ffffffffffffffffffffffffffffffffffffffff168152602001908152602001600020549050919050565b61071e610f33565b6107286000610fb1565b565b6000600760009054906101000a900473ffffffffffffffffffffffffffffffffffffffff16905090565b60606001805461076390612378565b80601f016020809104026020016040519081016040528092919081815260200182805461078f90612378565b80156107dc5780601f106107b1576101008083540402835291602001916107dc565b820191906000526020600020905b8154815290600101906020018083116107bf57829003601f168201915b5050505050905090565b6107f86107f1610aa7565b8383611077565b5050565b61080d610807610aa7565b83610b68565b61084c576040517f08c379a00000000000000000000000000000000000000000000000000000000081526004016108439061253f565b60405180910390fd5b610858848484846111e3565b50505050565b60606108698261123f565b9050919050565b610878610f33565b60006108846009611351565b905060085481106108c1576040517f5f466be800000000000000000000000000000000000000000000000000000000815260040160405180910390fd5b6108cb600961135f565b6108d58382611375565b6108df8183611393565b505050565b6000600560008473ffffffffffffffffffffffffffffffffffffffff1673ffffffffffffffffffffffffffffffffffffffff16815260200190815260200160002060008373ffffffffffffffffffffffffffffffffffffffff1673ffffffffffffffffffffffffffffffffffffffff16815260200190815260200160002060009054906101000a900460ff16905092915050565b610980610f33565b600073ffffffffffffffffffffffffffffffffffffffff168173ffffffffffffffffffffffffffffffffffffffff16036109ef576040517f08c379a00000000000000000000000000000000000000000000000000000000081526004016109e6906126cf565b60405180910390fd5b6109f881610fb1565b50565b6000634906490660e01b7bffffffffffffffffffffffffffffffffffffffffffffffffffffffff1916827bffffffffffffffffffffffffffffffffffffffffffffffffffffffff19161480610a555750610a5482611437565b5b9050919050565b610a6581611519565b610aa4576040517f08c379a0000000000000000000000000000000000000000000000000000000008152600401610a9b906125ab565b60405180910390fd5b50565b600033905090565b816004600083815260200190815260200160002060006101000a81548173ffffffffffffffffffffffffffffffffffffffff021916908373ffffffffffffffffffffffffffffffffffffffff160217905550808273ffffffffffffffffffffffffffffffffffffffff16610b22836105d9565b73ffffffffffffffffffffffffffffffffffffffff167f8c5be1e5ebec7d5bd14f71427d1e84f3dd0314c0f7b2291e5b200ac8c7c3b92560405160405180910390a45050565b600080610b74836105d9565b90508073ffffffffffffffffffffffffffffffffffffffff168473ffffffffffffffffffffffffffffffffffffffff161480610bb65750610bb581856108e4565b5b80610bf457508373ffffffffffffffffffffffffffffffffffffffff16610bdc846103fc565b73ffffffffffffffffffffffffffffffffffffffff16145b91505092915050565b8273ffffffffffffffffffffffffffffffffffffffff16610c1d826105d9565b73ffffffffffffffffffffffffffffffffffffffff1614610c73576040517f08c379a0000000000000000000000000000000000000000000000000000000008152600401610c6a90612761565b60405180910390fd5b600073ffffffffffffffffffffffffffffffffffffffff168273ffffffffffffffffffffffffffffffffffffffff1603610ce2576040517f08c379a0000000000000000000000000000000000000000000000000000000008152600401610cd9906127f3565b60405180910390fd5b610cef838383600161155a565b8273ffffffffffffffffffffffffffffffffffffffff16610d0f826105d9565b73ffffffffffffffffffffffffffffffffffffffff1614610d65576040517f08c379a0000000000000000000000000000000000000000000000000000000008152600401610d5c90612761565b60405180910390fd5b6004600082815260200190815260200160002060006101000a81549073ffffffffffffffffffffffffffffffffffffffff02191690556001600360008573ffffffffffffffffffffffffffffffffffffffff1673ffffffffffffffffffffffffffffffffffffffff168152602001908152602001600020600082825403925050819055506001600360008473ffffffffffffffffffffffffffffffffffffffff1673ffffffffffffffffffffffffffffffffffffffff16815260200190815260200160002060008282540192505081905550816002600083815260200190815260200160002060006101000a81548173ffffffffffffffffffffffffffffffffffffffff021916908373ffffffffffffffffffffffffffffffffffffffff160217905550808273ffffffffffffffffffffffffffffffffffffffff168473ffffffffffffffffffffffffffffffffffffffff167fddf252ad1be2c89b69c2b068fc378daa952ba7f163c4a11628f55a4df523b3ef60405160405180910390a4610ef18383836001611560565b505050565b60006002600083815260200190815260200160002060009054906101000a900473ffffffffffffffffffffffffffffffffffffffff169050919050565b610f3b610aa7565b73ffffffffffffffffffffffffffffffffffffffff16610f5961072a565b73ffffffffffffffffffffffffffffffffffffffff1614610faf576040517f08c379a0000000000000000000000000000000000000000000000000000000008152600401610fa69061285f565b60405180910390fd5b565b6000600760009054906101000a900473ffffffffffffffffffffffffffffffffffffffff16905081600760006101000a81548173ffffffffffffffffffffffffffffffffffffffff021916908373ffffffffffffffffffffffffffffffffffffffff1602179055508173ffffffffffffffffffffffffffffffffffffffff168173ffffffffffffffffffffffffffffffffffffffff167f8be0079c531659141344cd1fd0a4f28419497f9722a3daafe3b4186f6b6457e060405160405180910390a35050565b8173ffffffffffffffffffffffffffffffffffffffff168373ffffffffffffffffffffffffffffffffffffffff16036110e5576040517f08c379a00000000000000000000000000000000000000000000000000000000081526004016110dc906128cb565b60405180910390fd5b80600560008573ffffffffffffffffffffffffffffffffffffffff1673ffffffffffffffffffffffffffffffffffffffff16815260200190815260200160002060008473ffffffffffffffffffffffffffffffffffffffff1673ffffffffffffffffffffffffffffffffffffffff16815260200190815260200160002060006101000a81548160ff0219169083151502179055508173ffffffffffffffffffffffffffffffffffffffff168373ffffffffffffffffffffffffffffffffffffffff167f17307eab39ab6107e8899845ad3d59bd9653f200f220920489ca2b5937696c31836040516111d69190611d46565b60405180910390a3505050565b6111ee848484610bfd565b6111fa84848484611566565b611239576040517f08c379a00000000000000000000000000000000000000000000000000000000081526004016112309061295d565b60405180910390fd5b50505050565b606061124a82610a5c565b600060066000848152602001908152602001600020805461126a90612378565b80601f016020809104026020016040519081016040528092919081815260200182805461129690612378565b80156112e35780601f106112b8576101008083540402835291602001916112e3565b820191906000526020600020905b8154815290600101906020018083116112c657829003601f168201915b5050505050905060006112f46116ed565b9050600081510361130957819250505061134c565b60008251111561133e5780826040516020016113269291906129b9565b6040516020818303038152906040529250505061134c565b61134784611704565b925050505b919050565b600081600001549050919050565b6001816000016000828254019250508190555050565b61138f82826040518060200160405280600081525061176c565b5050565b61139c82611519565b6113db576040517f08c379a00000000000000000000000000000000000000000000000000000000081526004016113d290612a4f565b60405180910390fd5b806006600084815260200190815260200160002090816113fb9190612c1b565b507ff8e1a15aba9398e019f0b49df1a4fde98ee17ae345cb5f6b5e2c27f5033e8ce78260405161142b9190611fcd565b60405180910390a15050565b60007f80ac58cd000000000000000000000000000000000000000000000000000000007bffffffffffffffffffffffffffffffffffffffffffffffffffffffff1916827bffffffffffffffffffffffffffffffffffffffffffffffffffffffff1916148061150257507f5b5e139f000000000000000000000000000000000000000000000000000000007bffffffffffffffffffffffffffffffffffffffffffffffffffffffff1916827bffffffffffffffffffffffffffffffffffffffffffffffffffffffff1916145b806115125750611511826117c7565b5b9050919050565b60008073ffffffffffffffffffffffffffffffffffffffff1661153b83610ef6565b73ffffffffffffffffffffffffffffffffffffffff1614159050919050565b50505050565b50505050565b60006115878473ffffffffffffffffffffffffffffffffffffffff16611831565b156116e0578373ffffffffffffffffffffffffffffffffffffffff1663150b7a026115b0610aa7565b8786866040518563ffffffff1660e01b81526004016115d29493929190612d42565b6020604051808303816000875af192505050801561160e57506040513d601f19601f8201168201806040525081019061160b9190612da3565b60015b611690573d806000811461163e576040519150601f19603f3d011682016040523d82523d6000602084013e611643565b606091505b506000815103611688576040517f08c379a000000000000000000000000000000000000000000000000000000000815260040161167f9061295d565b60405180910390fd5b805181602001fd5b63150b7a0260e01b7bffffffffffffffffffffffffffffffffffffffffffffffffffffffff1916817bffffffffffffffffffffffffffffffffffffffffffffffffffffffff1916149150506116e5565b600190505b949350505050565b606060405180602001604052806000815250905090565b606061170f82610a5c565b60006117196116ed565b905060008151116117395760405180602001604052806000815250611764565b8061174384611854565b6040516020016117549291906129b9565b6040516020818303038152906040525b915050919050565b6117768383611922565b6117836000848484611566565b6117c2576040517f08c379a00000000000000000000000000000000000000000000000000000000081526004016117b99061295d565b60405180910390fd5b505050565b60007f01ffc9a7000000000000000000000000000000000000000000000000000000007bffffffffffffffffffffffffffffffffffffffffffffffffffffffff1916827bffffffffffffffffffffffffffffffffffffffffffffffffffffffff1916149050919050565b6000808273ffffffffffffffffffffffffffffffffffffffff163b119050919050565b60606000600161186384611b3f565b01905060008167ffffffffffffffff8111156118825761188161205e565b5b6040519080825280601f01601f1916602001820160405280156118b45781602001600182028036833780820191505090505b509050600082602001820190505b600115611917578080600190039150507f3031323334353637383961626364656600000000000000000000000000000000600a86061a8153600a858161190b5761190a612dd0565b5b049450600085036118c2575b819350505050919050565b600073ffffffffffffffffffffffffffffffffffffffff168273ffffffffffffffffffffffffffffffffffffffff1603611991576040517f08c379a000000000000000000000000000000000000000000000000000000000815260040161198890612e4b565b60405180910390fd5b61199a81611519565b156119da576040517f08c379a00000000000000000000000000000000000000000000000000000000081526004016119d190612eb7565b60405180910390fd5b6119e860008383600161155a565b6119f181611519565b15611a31576040517f08c379a0000000000000000000000000000000000000000000000000000000008152600401611a2890612eb7565b60405180910390fd5b6001600360008473ffffffffffffffffffffffffffffffffffffffff1673ffffffffffffffffffffffffffffffffffffffff16815260200190815260200160002060008282540192505081905550816002600083815260200190815260200160002060006101000a81548173ffffffffffffffffffffffffffffffffffffffff021916908373ffffffffffffffffffffffffffffffffffffffff160217905550808273ffffffffffffffffffffffffffffffffffffffff16600073ffffffffffffffffffffffffffffffffffffffff167fddf252ad1be2c89b69c2b068fc378daa952ba7f163c4a11628f55a4df523b3ef60405160405180910390a4611b3b600083836001611560565b5050565b600080600090507a184f03e93ff9f4daa797ed6e38ed64bf6a1f0100000000000000008310611b9d577a184f03e93ff9f4daa797ed6e38ed64bf6a1f0100000000000000008381611b9357611b92612dd0565b5b0492506040810190505b6d04ee2d6d415b85acef81000000008310611bda576d04ee2d6d415b85acef81000000008381611bd057611bcf612dd0565b5b0492506020810190505b662386f26fc100008310611c0957662386f26fc100008381611bff57611bfe612dd0565b5b0492506010810190505b6305f5e1008310611c32576305f5e1008381611c2857611c27612dd0565b5b0492506008810190505b6127108310611c57576127108381611c4d57611c4c612dd0565b5b0492506004810190505b60648310611c7a5760648381611c7057611c6f612dd0565b5b0492506002810190505b600a8310611c89576001810190505b80915050919050565b6000604051905090565b600080fd5b600080fd5b60007fffffffff0000000000000000000000000000000000000000000000000000000082169050919050565b611cdb81611ca6565b8114611ce657600080fd5b50565b600081359050611cf881611cd2565b92915050565b600060208284031215611d1457611d13611c9c565b5b6000611d2284828501611ce9565b91505092915050565b60008115159050919050565b611d4081611d2b565b82525050565b6000602082019050611d5b6000830184611d37565b92915050565b600081519050919050565b600082825260208201905092915050565b60005b83811015611d9b578082015181840152602081019050611d80565b60008484015250505050565b6000601f19601f8301169050919050565b6000611dc382611d61565b611dcd8185611d6c565b9350611ddd818560208601611d7d565b611de681611da7565b840191505092915050565b60006020820190508181036000830152611e0b8184611db8565b905092915050565b6000819050919050565b611e2681611e13565b8114611e3157600080fd5b50565b600081359050611e4381611e1d565b92915050565b600060208284031215611e5f57611e5e611c9c565b5b6000611e6d84828501611e34565b91505092915050565b600073ffffffffffffffffffffffffffffffffffffffff82169050919050565b6000611ea182611e76565b9050919050565b611eb181611e96565b82525050565b6000602082019050611ecc6000830184611ea8565b92915050565b611edb81611e96565b8114611ee657600080fd5b50565b600081359050611ef881611ed2565b92915050565b60008060408385031215611f1557611f14611c9c565b5b6000611f2385828601611ee9565b9250506020611f3485828601611e34565b9150509250929050565b600080600060608486031215611f5757611f56611c9c565b5b6000611f6586828701611ee9565b9350506020611f7686828701611ee9565b9250506040611f8786828701611e34565b9150509250925092565b600060208284031215611fa757611fa6611c9c565b5b6000611fb584828501611ee9565b91505092915050565b611fc781611e13565b82525050565b6000602082019050611fe26000830184611fbe565b92915050565b611ff181611d2b565b8114611ffc57600080fd5b50565b60008135905061200e81611fe8565b92915050565b6000806040838503121561202b5761202a611c9c565b5b600061203985828601611ee9565b925050602061204a85828601611fff565b9150509250929050565b600080fd5b600080fd5b7f4e487b7100000000000000000000000000000000000000000000000000000000600052604160045260246000fd5b61209682611da7565b810181811067ffffffffffffffff821117156120b5576120b461205e565b5b80604052505050565b60006120c8611c92565b90506120d4828261208d565b919050565b600067ffffffffffffffff8211156120f4576120f361205e565b5b6120fd82611da7565b9050602081019050919050565b82818337600083830152505050565b600061212c612127846120d9565b6120be565b90508281526020810184848401111561214857612147612059565b5b61215384828561210a565b509392505050565b600082601f8301126121705761216f612054565b5b8135612180848260208601612119565b91505092915050565b600080600080608085870312156121a3576121a2611c9c565b5b60006121b187828801611ee9565b94505060206121c287828801611ee9565b93505060406121d387828801611e34565b925050606085013567ffffffffffffffff8111156121f4576121f3611ca1565b5b6122008782880161215b565b91505092959194509250565b600067ffffffffffffffff8211156122275761222661205e565b5b61223082611da7565b9050602081019050919050565b600061225061224b8461220c565b6120be565b90508281526020810184848401111561226c5761226b612059565b5b61227784828561210a565b509392505050565b600082601f83011261229457612293612054565b5b81356122a484826020860161223d565b91505092915050565b600080604083850312156122c4576122c3611c9c565b5b60006122d285828601611ee9565b925050602083013567ffffffffffffffff8111156122f3576122f2611ca1565b5b6122ff8582860161227f565b9150509250929050565b600080604083850312156123205761231f611c9c565b5b600061232e85828601611ee9565b925050602061233f85828601611ee9565b9150509250929050565b7f4e487b7100000000000000000000000000000000000000000000000000000000600052602260045260246000fd5b6000600282049050600182168061239057607f821691505b6020821081036123a3576123a2612349565b5b50919050565b7f4552433732313a20617070726f76616c20746f2063757272656e74206f776e6560008201527f7200000000000000000000000000000000000000000000000000000000000000602082015250565b6000612405602183611d6c565b9150612410826123a9565b604082019050919050565b60006020820190508181036000830152612434816123f8565b9050919050565b7f4552433732313a20617070726f76652063616c6c6572206973206e6f7420746f60008201527f6b656e206f776e6572206f7220617070726f76656420666f7220616c6c000000602082015250565b6000612497603d83611d6c565b91506124a28261243b565b604082019050919050565b600060208201905081810360008301526124c68161248a565b9050919050565b7f4552433732313a2063616c6c6572206973206e6f7420746f6b656e206f776e6560008201527f72206f7220617070726f76656400000000000000000000000000000000000000602082015250565b6000612529602d83611d6c565b9150612534826124cd565b604082019050919050565b600060208201905081810360008301526125588161251c565b9050919050565b7f4552433732313a20696e76616c696420746f6b656e2049440000000000000000600082015250565b6000612595601883611d6c565b91506125a08261255f565b602082019050919050565b600060208201905081810360008301526125c481612588565b9050919050565b7f4552433732313a2061646472657373207a65726f206973206e6f74206120766160008201527f6c6964206f776e65720000000000000000000000000000000000000000000000602082015250565b6000612627602983611d6c565b9150612632826125cb565b604082019050919050565b600060208201905081810360008301526126568161261a565b9050919050565b7f4f776e61626c653a206e6577206f776e657220697320746865207a65726f206160008201527f6464726573730000000000000000000000000000000000000000000000000000602082015250565b60006126b9602683611d6c565b91506126c48261265d565b604082019050919050565b600060208201905081810360008301526126e8816126ac565b9050919050565b7f4552433732313a207472616e736665722066726f6d20696e636f72726563742060008201527f6f776e6572000000000000000000000000000000000000000000000000000000602082015250565b600061274b602583611d6c565b9150612756826126ef565b604082019050919050565b6000602082019050818103600083015261277a8161273e565b9050919050565b7f4552433732313a207472616e7366657220746f20746865207a65726f2061646460008201527f7265737300000000000000000000000000000000000000000000000000000000602082015250565b60006127dd602483611d6c565b91506127e882612781565b604082019050919050565b6000602082019050818103600083015261280c816127d0565b9050919050565b7f4f776e61626c653a2063616c6c6572206973206e6f7420746865206f776e6572600082015250565b6000612849602083611d6c565b915061285482612813565b602082019050919050565b600060208201905081810360008301526128788161283c565b9050919050565b7f4552433732313a20617070726f766520746f2063616c6c657200000000000000600082015250565b60006128b5601983611d6c565b91506128c08261287f565b602082019050919050565b600060208201905081810360008301526128e4816128a8565b9050919050565b7f4552433732313a207472616e7366657220746f206e6f6e20455243373231526560008201527f63656976657220696d706c656d656e7465720000000000000000000000000000602082015250565b6000612947603283611d6c565b9150612952826128eb565b604082019050919050565b600060208201905081810360008301526129768161293a565b9050919050565b600081905092915050565b600061299382611d61565b61299d818561297d565b93506129ad818560208601611d7d565b80840191505092915050565b60006129c58285612988565b91506129d18284612988565b91508190509392505050565b7f45524337323155524953746f726167653a2055524920736574206f66206e6f6e60008201527f6578697374656e7420746f6b656e000000000000000000000000000000000000602082015250565b6000612a39602e83611d6c565b9150612a44826129dd565b604082019050919050565b60006020820190508181036000830152612a6881612a2c565b9050919050565b60008190508160005260206000209050919050565b60006020601f8301049050919050565b600082821b905092915050565b600060088302612ad17fffffffffffffffffffffffffffffffffffffffffffffffffffffffffffffffff82612a94565b612adb8683612a94565b95508019841693508086168417925050509392505050565b6000819050919050565b6000612b18612b13612b0e84611e13565b612af3565b611e13565b9050919050565b6000819050919050565b612b3283612afd565b612b46612b3e82612b1f565b848454612aa1565b825550505050565b600090565b612b5b612b4e565b612b66818484612b29565b505050565b5b81811015612b8a57612b7f600082612b53565b600181019050612b6c565b5050565b601f821115612bcf57612ba081612a6f565b612ba984612a84565b81016020851015612bb8578190505b612bcc612bc485612a84565b830182612b6b565b50505b505050565b600082821c905092915050565b6000612bf260001984600802612bd4565b1980831691505092915050565b6000612c0b8383612be1565b9150826002028217905092915050565b612c2482611d61565b67ffffffffffffffff811115612c3d57612c3c61205e565b5b612c478254612378565b612c52828285612b8e565b600060209050601f831160018114612c855760008415612c73578287015190505b612c7d8582612bff565b865550612ce5565b601f198416612c9386612a6f565b60005b82811015612cbb57848901518255600182019150602085019450602081019050612c96565b86831015612cd85784890151612cd4601f891682612be1565b8355505b6001600288020188555050505b505050505050565b600081519050919050565b600082825260208201905092915050565b6000612d1482612ced565b612d1e8185612cf8565b9350612d2e818560208601611d7d565b612d3781611da7565b840191505092915050565b6000608082019050612d576000830187611ea8565b612d646020830186611ea8565b612d716040830185611fbe565b8181036060830152612d838184612d09565b905095945050505050565b600081519050612d9d81611cd2565b92915050565b600060208284031215612db957612db8611c9c565b5b6000612dc784828501612d8e565b91505092915050565b7f4e487b7100000000000000000000000000000000000000000000000000000000600052601260045260246000fd5b7f4552433732313a206d696e7420746f20746865207a65726f2061646472657373600082015250565b6000612e35602083611d6c565b9150612e4082612dff565b602082019050919050565b60006020820190508181036000830152612e6481612e28565b9050919050565b7f4552433732313a20746f6b656e20616c7265616479206d696e74656400000000600082015250565b6000612ea1601c83611d6c565b9150612eac82612e6b565b602082019050919050565b60006020820190508181036000830152612ed081612e94565b905091905056fea2646970667358221220263cbdf3208bbf33526c0ee274676222f3bccafd2cbd6b21ac73ee02095de0b464736f6c63430008130033",
  "linkReferences": {},
  "deployedLinkReferences": {}
}