{
  "_format": "hh-sol-artifact-1",
  "contractName": "RandomNumberlottery",
  "sourceName": "contracts/RandomNumberlottery.sol",
  "abi": [
    {
      "inputs": [
        {
          "internalType": "address",
          "name": "_linkAddress",
          "type": "address"
        },
        {
          "internalType": "address",
          "name": "_wrapperAddress",
          "type": "address"
        }
      ],
      "stateMutability": "nonpayable",
      "type": "constructor"
    },
    {
      "inputs": [],
      "name": "CallFailed",
      "type": "error"
    },
    {
      "inputs": [
        {
          "internalType": "uint256",
          "name": "balance",
          "type": "uint256"
        },
        {
          "internalType": "uint256",
          "name": "paid",
          "type": "uint256"
        }
      ],
      "name": "InsufficientFunds",
      "type": "error"
    },
    {
      "inputs": [
        {
          "internalType": "uint256",
          "name": "",
          "type": "uint256"
        }
      ],
      "name": "JoinPaly_Error",
      "type": "error"
    },
    {
      "inputs": [
        {
          "internalType": "address",
          "name": "sender",
          "type": "address"
        },
        {
          "internalType": "address",
          "name": "receiver",
          "type": "address"
        },
        {
          "internalType": "uint256",
          "name": "amount",
          "type": "uint256"
        }
      ],
      "name": "LinkTransferError",
      "type": "error"
    },
    {
      "inputs": [
        {
          "internalType": "uint256",
          "name": "requestId",
          "type": "uint256"
        }
      ],
      "name": "RequestNotFound",
      "type": "error"
    },
    {
      "inputs": [
        {
          "internalType": "uint256",
          "name": "",
          "type": "uint256"
        }
      ],
      "name": "slottery_Error",
      "type": "error"
    },
    {
      "anonymous": false,
      "inputs": [
        {
          "indexed": false,
          "internalType": "address",
          "name": "",
          "type": "address"
        },
        {
          "indexed": false,
          "internalType": "uint256",
          "name": "",
          "type": "uint256"
        },
        {
          "indexed": false,
          "internalType": "uint256",
          "name": "",
          "type": "uint256"
        }
      ],
      "name": "Log",
      "type": "event"
    },
    {
      "anonymous": false,
      "inputs": [
        {
          "indexed": true,
          "internalType": "address",
          "name": "from",
          "type": "address"
        },
        {
          "indexed": true,
          "internalType": "address",
          "name": "to",
          "type": "address"
        }
      ],
      "name": "OwnershipTransferRequested",
      "type": "event"
    },
    {
      "anonymous": false,
      "inputs": [
        {
          "indexed": true,
          "internalType": "address",
          "name": "from",
          "type": "address"
        },
        {
          "indexed": true,
          "internalType": "address",
          "name": "to",
          "type": "address"
        }
      ],
      "name": "OwnershipTransferred",
      "type": "event"
    },
    {
      "anonymous": false,
      "inputs": [
        {
          "indexed": false,
          "internalType": "uint256",
          "name": "requestId",
          "type": "uint256"
        },
        {
          "indexed": false,
          "internalType": "uint256[]",
          "name": "randomWords",
          "type": "uint256[]"
        },
        {
          "indexed": false,
          "internalType": "uint256",
          "name": "payment",
          "type": "uint256"
        }
      ],
      "name": "RequestFulfilled",
      "type": "event"
    },
    {
      "anonymous": false,
      "inputs": [
        {
          "indexed": false,
          "internalType": "uint256",
          "name": "requestId",
          "type": "uint256"
        },
        {
          "indexed": false,
          "internalType": "uint32",
          "name": "numWords",
          "type": "uint32"
        },
        {
          "indexed": false,
          "internalType": "uint256",
          "name": "paid",
          "type": "uint256"
        }
      ],
      "name": "RequestSent",
      "type": "event"
    },
    {
      "stateMutability": "payable",
      "type": "fallback"
    },
    {
      "inputs": [],
      "name": "acceptOwnership",
      "outputs": [],
      "stateMutability": "nonpayable",
      "type": "function"
    },
    {
      "inputs": [],
      "name": "getNumberOfRequests",
      "outputs": [
        {
          "internalType": "uint256",
          "name": "",
          "type": "uint256"
        }
      ],
      "stateMutability": "view",
      "type": "function"
    },
    {
      "inputs": [
        {
          "internalType": "uint256",
          "name": "_requestId",
          "type": "uint256"
        }
      ],
      "name": "getRequestStatus",
      "outputs": [
        {
          "internalType": "uint256",
          "name": "paid",
          "type": "uint256"
        },
        {
          "internalType": "bool",
          "name": "fulfilled",
          "type": "bool"
        },
        {
          "internalType": "uint256[]",
          "name": "randomWords",
          "type": "uint256[]"
        }
      ],
      "stateMutability": "view",
      "type": "function"
    },
    {
      "inputs": [],
      "name": "getwiner",
      "outputs": [
        {
          "internalType": "address",
          "name": "",
          "type": "address"
        }
      ],
      "stateMutability": "view",
      "type": "function"
    },
    {
      "inputs": [],
      "name": "joinPlay",
      "outputs": [],
      "stateMutability": "payable",
      "type": "function"
    },
    {
      "inputs": [],
      "name": "lastRequestId",
      "outputs": [
        {
          "internalType": "uint256",
          "name": "",
          "type": "uint256"
        }
      ],
      "stateMutability": "view",
      "type": "function"
    },
    {
      "inputs": [],
      "name": "owner",
      "outputs": [
        {
          "internalType": "address",
          "name": "",
          "type": "address"
        }
      ],
      "stateMutability": "view",
      "type": "function"
    },
    {
      "inputs": [
        {
          "internalType": "address",
          "name": "",
          "type": "address"
        }
      ],
      "name": "peopleTomoney",
      "outputs": [
        {
          "internalType": "uint256",
          "name": "",
          "type": "uint256"
        }
      ],
      "stateMutability": "view",
      "type": "function"
    },
    {
      "inputs": [
        {
          "internalType": "uint256",
          "name": "_requestId",
          "type": "uint256"
        },
        {
          "internalType": "uint256[]",
          "name": "_randomWords",
          "type": "uint256[]"
        }
      ],
      "name": "rawFulfillRandomWords",
      "outputs": [],
      "stateMutability": "nonpayable",
      "type": "function"
    },
    {
      "inputs": [
        {
          "internalType": "uint256",
          "name": "",
          "type": "uint256"
        }
      ],
      "name": "requestIds",
      "outputs": [
        {
          "internalType": "uint256",
          "name": "",
          "type": "uint256"
        }
      ],
      "stateMutability": "view",
      "type": "function"
    },
    {
      "inputs": [],
      "name": "requestRandomWords",
      "outputs": [
        {
          "internalType": "uint256",
          "name": "requestId",
          "type": "uint256"
        }
      ],
      "stateMutability": "nonpayable",
      "type": "function"
    },
    {
      "inputs": [
        {
          "internalType": "uint256",
          "name": "",
          "type": "uint256"
        }
      ],
      "name": "s_requests",
      "outputs": [
        {
          "internalType": "uint256",
          "name": "paid",
          "type": "uint256"
        },
        {
          "internalType": "bool",
          "name": "fulfilled",
          "type": "bool"
        }
      ],
      "stateMutability": "view",
      "type": "function"
    },
    {
      "inputs": [
        {
          "internalType": "address",
          "name": "to",
          "type": "address"
        }
      ],
      "name": "transferOwnership",
      "outputs": [],
      "stateMutability": "nonpayable",
      "type": "function"
    },
    {
      "inputs": [],
      "name": "winerdraw",
      "outputs": [],
      "stateMutability": "nonpayable",
      "type": "function"
    },
    {
      "inputs": [
        {
          "internalType": "address",
          "name": "_receiver",
          "type": "address"
        }
      ],
      "name": "withdrawLink",
      "outputs": [],
      "stateMutability": "nonpayable",
      "type": "function"
    },
    {
      "stateMutability": "payable",
      "type": "receive"
    }
  ],
  "bytecode": "0x60c0604052620493e0600860146101000a81548163ffffffff021916908363ffffffff1602179055506003600860186101000a81548161ffff021916908361ffff16021790555060036008601a6101000a81548163ffffffff021916908363ffffffff1602179055503480156200007557600080fd5b50604051620028fa380380620028fa83398181016040528101906200009b9190620003aa565b3380600084848173ffffffffffffffffffffffffffffffffffffffff1660808173ffffffffffffffffffffffffffffffffffffffff16815250508073ffffffffffffffffffffffffffffffffffffffff1660a08173ffffffffffffffffffffffffffffffffffffffff16815250505050600073ffffffffffffffffffffffffffffffffffffffff168273ffffffffffffffffffffffffffffffffffffffff1614156200017e576040517f08c379a0000000000000000000000000000000000000000000000000000000008152600401620001759062000452565b60405180910390fd5b816000806101000a81548173ffffffffffffffffffffffffffffffffffffffff021916908373ffffffffffffffffffffffffffffffffffffffff160217905550600073ffffffffffffffffffffffffffffffffffffffff168173ffffffffffffffffffffffffffffffffffffffff1614620002055762000204816200021060201b60201c565b5b5050505050620004e6565b3373ffffffffffffffffffffffffffffffffffffffff168173ffffffffffffffffffffffffffffffffffffffff16141562000282576040517f08c379a00000000000000000000000000000000000000000000000000000000081526004016200027990620004c4565b60405180910390fd5b80600160006101000a81548173ffffffffffffffffffffffffffffffffffffffff021916908373ffffffffffffffffffffffffffffffffffffffff1602179055508073ffffffffffffffffffffffffffffffffffffffff1660008054906101000a900473ffffffffffffffffffffffffffffffffffffffff1673ffffffffffffffffffffffffffffffffffffffff167fed8889f560326eb138920d842192f0eb3dd22b4f139c87a2c57538e05bae127860405160405180910390a350565b600080fd5b600073ffffffffffffffffffffffffffffffffffffffff82169050919050565b6000620003728262000345565b9050919050565b620003848162000365565b81146200039057600080fd5b50565b600081519050620003a48162000379565b92915050565b60008060408385031215620003c457620003c362000340565b5b6000620003d48582860162000393565b9250506020620003e78582860162000393565b9150509250929050565b600082825260208201905092915050565b7f43616e6e6f7420736574206f776e657220746f207a65726f0000000000000000600082015250565b60006200043a601883620003f1565b9150620004478262000402565b602082019050919050565b600060208201905081810360008301526200046d816200042b565b9050919050565b7f43616e6e6f74207472616e7366657220746f2073656c66000000000000000000600082015250565b6000620004ac601783620003f1565b9150620004b98262000474565b602082019050919050565b60006020820190508181036000830152620004df816200049d565b9050919050565b60805160a0516123b6620005446000396000818161048d01528181610e130152818161145b0152818161147c01526115ba01526000818161086b015281816108a8015281816109c901528181610ed2015261141f01526123b66000f3fe6080604052600436106100ec5760003560e01c8063973884971161008a578063dcdcb14711610059578063dcdcb14714610348578063e0c8628914610373578063f2fde38b1461039e578063fc2a88c3146103c757610131565b80639738849714610289578063a168fa89146102b4578063ba426c07146102f2578063d8a4676f1461030957610131565b80638796ba8c116100c65780638796ba8c146101bb57806388f13df0146101f85780638da5cb5b1461023557806390e9ca7f1461026057610131565b80631fe543e31461017157806375d55ab31461019a57806379ba5097146101a457610131565b366101315761012f6040518060400160405280600781526020017f72656365697665000000000000000000000000000000000000000000000000008152506103f2565b005b61016f6040518060400160405280600881526020017f66616c6c6261636b0000000000000000000000000000000000000000000000008152506103f2565b005b34801561017d57600080fd5b5061019860048036038101906101939190611a89565b61048b565b005b6101a2610527565b005b3480156101b057600080fd5b506101b9610665565b005b3480156101c757600080fd5b506101e260048036038101906101dd9190611ae5565b6107fa565b6040516101ef9190611b21565b60405180910390f35b34801561020457600080fd5b5061021f600480360381019061021a9190611b9a565b61081e565b60405161022c9190611b21565b60405180910390f35b34801561024157600080fd5b5061024a610836565b6040516102579190611bd6565b60405180910390f35b34801561026c57600080fd5b5061028760048036038101906102829190611b9a565b61085f565b005b34801561029557600080fd5b5061029e610ab2565b6040516102ab9190611b21565b60405180910390f35b3480156102c057600080fd5b506102db60048036038101906102d69190611ae5565b610abf565b6040516102e9929190611c0c565b60405180910390f35b3480156102fe57600080fd5b50610307610af0565b005b34801561031557600080fd5b50610330600480360381019061032b9190611ae5565b610c42565b60405161033f93929190611cf3565b60405180910390f35b34801561035457600080fd5b5061035d610d4d565b60405161036a9190611bd6565b60405180910390f35b34801561037f57600080fd5b50610388610d77565b6040516103959190611b21565b60405180910390f35b3480156103aa57600080fd5b506103c560048036038101906103c09190611b9a565b611108565b005b3480156103d357600080fd5b506103dc61111c565b6040516103e99190611b21565b60405180910390f35b610488816040516024016104069190611db9565b6040516020818303038152906040527f41304fac000000000000000000000000000000000000000000000000000000007bffffffffffffffffffffffffffffffffffffffffffffffffffffffff19166020820180517bffffffffffffffffffffffffffffffffffffffffffffffffffffffff8381831617835250505050611122565b50565b7f000000000000000000000000000000000000000000000000000000000000000073ffffffffffffffffffffffffffffffffffffffff163373ffffffffffffffffffffffffffffffffffffffff1614610519576040517f08c379a000000000000000000000000000000000000000000000000000000000815260040161051090611e27565b60405180910390fd5b610523828261113c565b5050565b67016345785d8a0000341461057357346040517fe735ceac00000000000000000000000000000000000000000000000000000000815260040161056a9190611b21565b60405180910390fd5b34600660003373ffffffffffffffffffffffffffffffffffffffff1673ffffffffffffffffffffffffffffffffffffffff168152602001908152602001600020819055506007339080600181540180825580915050600190039060005260206000200160009091909190916101000a81548173ffffffffffffffffffffffffffffffffffffffff021916908373ffffffffffffffffffffffffffffffffffffffff1602179055506106286007805490506112f2565b7f940f8524c5e5984c910d020c9c65918682bc7ed567dbc8d49277f0e787ee5f0033344260405161065b93929190611e47565b60405180910390a1565b600160009054906101000a900473ffffffffffffffffffffffffffffffffffffffff1673ffffffffffffffffffffffffffffffffffffffff163373ffffffffffffffffffffffffffffffffffffffff16146106f5576040517f08c379a00000000000000000000000000000000000000000000000000000000081526004016106ec90611eca565b60405180910390fd5b60008060009054906101000a900473ffffffffffffffffffffffffffffffffffffffff169050336000806101000a81548173ffffffffffffffffffffffffffffffffffffffff021916908373ffffffffffffffffffffffffffffffffffffffff1602179055506000600160006101000a81548173ffffffffffffffffffffffffffffffffffffffff021916908373ffffffffffffffffffffffffffffffffffffffff1602179055503373ffffffffffffffffffffffffffffffffffffffff168173ffffffffffffffffffffffffffffffffffffffff167f8be0079c531659141344cd1fd0a4f28419497f9722a3daafe3b4186f6b6457e060405160405180910390a350565b6003818154811061080a57600080fd5b906000526020600020016000915090505481565b60066020528060005260406000206000915090505481565b60008060009054906101000a900473ffffffffffffffffffffffffffffffffffffffff16905090565b61086761138b565b60007f000000000000000000000000000000000000000000000000000000000000000073ffffffffffffffffffffffffffffffffffffffff1663a9059cbb837f000000000000000000000000000000000000000000000000000000000000000073ffffffffffffffffffffffffffffffffffffffff166370a08231306040518263ffffffff1660e01b81526004016108ff9190611bd6565b60206040518083038186803b15801561091757600080fd5b505afa15801561092b573d6000803e3d6000fd5b505050506040513d601f19601f8201168201806040525081019061094f9190611eff565b6040518363ffffffff1660e01b815260040161096c929190611f2c565b602060405180830381600087803b15801561098657600080fd5b505af115801561099a573d6000803e3d6000fd5b505050506040513d601f19601f820116820180604052508101906109be9190611f81565b905080610aae5733827f000000000000000000000000000000000000000000000000000000000000000073ffffffffffffffffffffffffffffffffffffffff166370a08231306040518263ffffffff1660e01b8152600401610a209190611bd6565b60206040518083038186803b158015610a3857600080fd5b505afa158015610a4c573d6000803e3d6000fd5b505050506040513d601f19601f82011682018060405250810190610a709190611eff565b6040517f5def27d7000000000000000000000000000000000000000000000000000000008152600401610aa593929190611fae565b60405180910390fd5b5050565b6000600380549050905090565b60026020528060005260406000206000915090508060000154908060010160009054906101000a900460ff16905082565b600860009054906101000a900473ffffffffffffffffffffffffffffffffffffffff1673ffffffffffffffffffffffffffffffffffffffff163373ffffffffffffffffffffffffffffffffffffffff161415610c40576000600860009054906101000a900473ffffffffffffffffffffffffffffffffffffffff1673ffffffffffffffffffffffffffffffffffffffff1647604051610b8e90612016565b60006040518083038185875af1925050503d8060008114610bcb576040519150601f19603f3d011682016040523d82523d6000602084013e610bd0565b606091505b5050905080610c0b576040517f3204506f00000000000000000000000000000000000000000000000000000000815260040160405180910390fd5b60076000610c199190611851565b600860006101000a81549073ffffffffffffffffffffffffffffffffffffffff0219169055505b565b6000806060600060026000868152602001908152602001600020604051806060016040529081600082015481526020016001820160009054906101000a900460ff1615151515815260200160028201805480602002602001604051908101604052809291908181526020018280548015610cdb57602002820191906000526020600020905b815481526020019060010190808311610cc7575b5050505050815250509050600081600001511415610d3057846040517f4ec726c7000000000000000000000000000000000000000000000000000000008152600401610d279190611b21565b60405180910390fd5b806000015181602001518260400151935093509350509193909250565b6000600860009054906101000a900473ffffffffffffffffffffffffffffffffffffffff16905090565b6000610d8161138b565b67016345785d8a0000471015610dce57476040517ffb47b9a9000000000000000000000000000000000000000000000000000000008152600401610dc59190611b21565b60405180910390fd5b610e0d600860149054906101000a900463ffffffff16600860189054906101000a900461ffff166008601a9054906101000a900463ffffffff1661141b565b905060007f000000000000000000000000000000000000000000000000000000000000000073ffffffffffffffffffffffffffffffffffffffff16634306d354600860149054906101000a900463ffffffff166040518263ffffffff1660e01b8152600401610e7c919061204a565b60206040518083038186803b158015610e9457600080fd5b505afa158015610ea8573d6000803e3d6000fd5b505050506040513d601f19601f82011682018060405250810190610ecc9190611eff565b905060007f000000000000000000000000000000000000000000000000000000000000000073ffffffffffffffffffffffffffffffffffffffff166370a08231306040518263ffffffff1660e01b8152600401610f299190611bd6565b60206040518083038186803b158015610f4157600080fd5b505afa158015610f55573d6000803e3d6000fd5b505050506040513d601f19601f82011682018060405250810190610f799190611eff565b905081811015610fc25780826040517f03eb8b54000000000000000000000000000000000000000000000000000000008152600401610fb9929190612065565b60405180910390fd5b6040518060600160405280838152602001600015158152602001600067ffffffffffffffff811115610ff757610ff6611946565b5b6040519080825280602002602001820160405280156110255781602001602082028036833780820191505090505b50815250600260008581526020019081526020016000206000820151816000015560208201518160010160006101000a81548160ff0219169083151502179055506040820151816002019080519060200190611082929190611872565b509050506003839080600181540180825580915050600190039060005260206000200160009091909190915055826004819055507f643b454d39972ed209afefa4a771c7a9057229bc7e6b66566f5be8441bf9b1e2836008601a9054906101000a900463ffffffff16846040516110fb9392919061208e565b60405180910390a1505090565b61111061138b565b6111198161165f565b50565b60045481565b6111398161113161178c6117ad565b63ffffffff16565b50565b600060026000848152602001908152602001600020905060008160000154141561119d57826040517f4ec726c70000000000000000000000000000000000000000000000000000000081526004016111949190611b21565b60405180910390fd5b60018160010160006101000a81548160ff021916908315150217905550818160020190805190602001906111d2929190611872565b506000600780549050836000815181106111ef576111ee6120c5565b5b60200260200101516112019190612123565b905060078181548110611217576112166120c5565b5b9060005260206000200160009054906101000a900473ffffffffffffffffffffffffffffffffffffffff16600860006101000a81548173ffffffffffffffffffffffffffffffffffffffff021916908373ffffffffffffffffffffffffffffffffffffffff1602179055506112ad600860009054906101000a900473ffffffffffffffffffffffffffffffffffffffff166117b8565b7f147eb1ff0c82f87f2b03e2c43f5a36488ff63ec6b730195fde4605f612f8db51848484600001546040516112e493929190612154565b60405180910390a150505050565b611388816040516024016113069190611b21565b6040516020818303038152906040527ff82c50f1000000000000000000000000000000000000000000000000000000007bffffffffffffffffffffffffffffffffffffffffffffffffffffffff19166020820180517bffffffffffffffffffffffffffffffffffffffffffffffffffffffff8381831617835250505050611122565b50565b60008054906101000a900473ffffffffffffffffffffffffffffffffffffffff1673ffffffffffffffffffffffffffffffffffffffff163373ffffffffffffffffffffffffffffffffffffffff1614611419576040517f08c379a0000000000000000000000000000000000000000000000000000000008152600401611410906121de565b60405180910390fd5b565b60007f000000000000000000000000000000000000000000000000000000000000000073ffffffffffffffffffffffffffffffffffffffff16634000aea07f00000000000000000000000000000000000000000000000000000000000000007f000000000000000000000000000000000000000000000000000000000000000073ffffffffffffffffffffffffffffffffffffffff16634306d354886040518263ffffffff1660e01b81526004016114d3919061204a565b60206040518083038186803b1580156114eb57600080fd5b505afa1580156114ff573d6000803e3d6000fd5b505050506040513d601f19601f820116820180604052508101906115239190611eff565b8787876040516020016115389392919061221b565b6040516020818303038152906040526040518463ffffffff1660e01b8152600401611565939291906122a7565b602060405180830381600087803b15801561157f57600080fd5b505af1158015611593573d6000803e3d6000fd5b505050506040513d601f19601f820116820180604052508101906115b79190611f81565b507f000000000000000000000000000000000000000000000000000000000000000073ffffffffffffffffffffffffffffffffffffffff1663fc2a88c36040518163ffffffff1660e01b815260040160206040518083038186803b15801561161e57600080fd5b505afa158015611632573d6000803e3d6000fd5b505050506040513d601f19601f820116820180604052508101906116569190611eff565b90509392505050565b3373ffffffffffffffffffffffffffffffffffffffff168173ffffffffffffffffffffffffffffffffffffffff1614156116ce576040517f08c379a00000000000000000000000000000000000000000000000000000000081526004016116c590612331565b60405180910390fd5b80600160006101000a81548173ffffffffffffffffffffffffffffffffffffffff021916908373ffffffffffffffffffffffffffffffffffffffff1602179055508073ffffffffffffffffffffffffffffffffffffffff1660008054906101000a900473ffffffffffffffffffffffffffffffffffffffff1673ffffffffffffffffffffffffffffffffffffffff167fed8889f560326eb138920d842192f0eb3dd22b4f139c87a2c57538e05bae127860405160405180910390a350565b60006a636f6e736f6c652e6c6f679050600080835160208501845afa505050565b6118bf819050919050565b61184e816040516024016117cc9190611bd6565b6040516020818303038152906040527f2c2ecbc2000000000000000000000000000000000000000000000000000000007bffffffffffffffffffffffffffffffffffffffffffffffffffffffff19166020820180517bffffffffffffffffffffffffffffffffffffffffffffffffffffffff8381831617835250505050611122565b50565b508054600082559060005260206000209081019061186f91906118c9565b50565b8280548282559060005260206000209081019282156118ae579160200282015b828111156118ad578251825591602001919060010190611892565b5b5090506118bb91906118c9565b5090565b6118c7612351565b565b5b808211156118e25760008160009055506001016118ca565b5090565b6000604051905090565b600080fd5b600080fd5b6000819050919050565b61190d816118fa565b811461191857600080fd5b50565b60008135905061192a81611904565b92915050565b600080fd5b6000601f19601f8301169050919050565b7f4e487b7100000000000000000000000000000000000000000000000000000000600052604160045260246000fd5b61197e82611935565b810181811067ffffffffffffffff8211171561199d5761199c611946565b5b80604052505050565b60006119b06118e6565b90506119bc8282611975565b919050565b600067ffffffffffffffff8211156119dc576119db611946565b5b602082029050602081019050919050565b600080fd5b6000611a05611a00846119c1565b6119a6565b90508083825260208201905060208402830185811115611a2857611a276119ed565b5b835b81811015611a515780611a3d888261191b565b845260208401935050602081019050611a2a565b5050509392505050565b600082601f830112611a7057611a6f611930565b5b8135611a808482602086016119f2565b91505092915050565b60008060408385031215611aa057611a9f6118f0565b5b6000611aae8582860161191b565b925050602083013567ffffffffffffffff811115611acf57611ace6118f5565b5b611adb85828601611a5b565b9150509250929050565b600060208284031215611afb57611afa6118f0565b5b6000611b098482850161191b565b91505092915050565b611b1b816118fa565b82525050565b6000602082019050611b366000830184611b12565b92915050565b600073ffffffffffffffffffffffffffffffffffffffff82169050919050565b6000611b6782611b3c565b9050919050565b611b7781611b5c565b8114611b8257600080fd5b50565b600081359050611b9481611b6e565b92915050565b600060208284031215611bb057611baf6118f0565b5b6000611bbe84828501611b85565b91505092915050565b611bd081611b5c565b82525050565b6000602082019050611beb6000830184611bc7565b92915050565b60008115159050919050565b611c0681611bf1565b82525050565b6000604082019050611c216000830185611b12565b611c2e6020830184611bfd565b9392505050565b600081519050919050565b600082825260208201905092915050565b6000819050602082019050919050565b611c6a816118fa565b82525050565b6000611c7c8383611c61565b60208301905092915050565b6000602082019050919050565b6000611ca082611c35565b611caa8185611c40565b9350611cb583611c51565b8060005b83811015611ce6578151611ccd8882611c70565b9750611cd883611c88565b925050600181019050611cb9565b5085935050505092915050565b6000606082019050611d086000830186611b12565b611d156020830185611bfd565b8181036040830152611d278184611c95565b9050949350505050565b600081519050919050565b600082825260208201905092915050565b60005b83811015611d6b578082015181840152602081019050611d50565b83811115611d7a576000848401525b50505050565b6000611d8b82611d31565b611d958185611d3c565b9350611da5818560208601611d4d565b611dae81611935565b840191505092915050565b60006020820190508181036000830152611dd38184611d80565b905092915050565b7f6f6e6c792056524620563220777261707065722063616e2066756c66696c6c00600082015250565b6000611e11601f83611d3c565b9150611e1c82611ddb565b602082019050919050565b60006020820190508181036000830152611e4081611e04565b9050919050565b6000606082019050611e5c6000830186611bc7565b611e696020830185611b12565b611e766040830184611b12565b949350505050565b7f4d7573742062652070726f706f736564206f776e657200000000000000000000600082015250565b6000611eb4601683611d3c565b9150611ebf82611e7e565b602082019050919050565b60006020820190508181036000830152611ee381611ea7565b9050919050565b600081519050611ef981611904565b92915050565b600060208284031215611f1557611f146118f0565b5b6000611f2384828501611eea565b91505092915050565b6000604082019050611f416000830185611bc7565b611f4e6020830184611b12565b9392505050565b611f5e81611bf1565b8114611f6957600080fd5b50565b600081519050611f7b81611f55565b92915050565b600060208284031215611f9757611f966118f0565b5b6000611fa584828501611f6c565b91505092915050565b6000606082019050611fc36000830186611bc7565b611fd06020830185611bc7565b611fdd6040830184611b12565b949350505050565b600081905092915050565b50565b6000612000600083611fe5565b915061200b82611ff0565b600082019050919050565b600061202182611ff3565b9150819050919050565b600063ffffffff82169050919050565b6120448161202b565b82525050565b600060208201905061205f600083018461203b565b92915050565b600060408201905061207a6000830185611b12565b6120876020830184611b12565b9392505050565b60006060820190506120a36000830186611b12565b6120b0602083018561203b565b6120bd6040830184611b12565b949350505050565b7f4e487b7100000000000000000000000000000000000000000000000000000000600052603260045260246000fd5b7f4e487b7100000000000000000000000000000000000000000000000000000000600052601260045260246000fd5b600061212e826118fa565b9150612139836118fa565b925082612149576121486120f4565b5b828206905092915050565b60006060820190506121696000830186611b12565b818103602083015261217b8185611c95565b905061218a6040830184611b12565b949350505050565b7f4f6e6c792063616c6c61626c65206279206f776e657200000000000000000000600082015250565b60006121c8601683611d3c565b91506121d382612192565b602082019050919050565b600060208201905081810360008301526121f7816121bb565b9050919050565b600061ffff82169050919050565b612215816121fe565b82525050565b6000606082019050612230600083018661203b565b61223d602083018561220c565b61224a604083018461203b565b949350505050565b600081519050919050565b600082825260208201905092915050565b600061227982612252565b612283818561225d565b9350612293818560208601611d4d565b61229c81611935565b840191505092915050565b60006060820190506122bc6000830186611bc7565b6122c96020830185611b12565b81810360408301526122db818461226e565b9050949350505050565b7f43616e6e6f74207472616e7366657220746f2073656c66000000000000000000600082015250565b600061231b601783611d3c565b9150612326826122e5565b602082019050919050565b6000602082019050818103600083015261234a8161230e565b9050919050565b7f4e487b7100000000000000000000000000000000000000000000000000000000600052605160045260246000fdfea264697066735822122084bffa756a1b115818ce7ee837e56459bb5264202ef83c4593c9ee39b81758d764736f6c63430008090033",
  "linkReferences": {},
  "deployedLinkReferences": {}
}