{
  "_format": "hh-sol-artifact-1",
  "contractName": "VRFV2Wrapper",
  "sourceName": "@chainlink/contracts/src/v0.8/VRFV2Wrapper.sol",
  "abi": [
    {
      "inputs": [
        {
          "internalType": "address",
          "name": "_link",
          "type": "address"
        },
        {
          "internalType": "address",
          "name": "_linkEthFeed",
          "type": "address"
        },
        {
          "internalType": "address",
          "name": "_coordinator",
          "type": "address"
        }
      ],
      "stateMutability": "nonpayable",
      "type": "constructor"
    },
    {
      "inputs": [
        {
          "internalType": "address",
          "name": "have",
          "type": "address"
        },
        {
          "internalType": "address",
          "name": "want",
          "type": "address"
        }
      ],
      "name": "OnlyCoordinatorCanFulfill",
      "type": "error"
    },
    {
      "anonymous": false,
      "inputs": [
        {
          "indexed": true,
          "internalType": "address",
          "name": "from",
          "type": "address"
        },
        {
          "indexed": true,
          "internalType": "address",
          "name": "to",
          "type": "address"
        }
      ],
      "name": "OwnershipTransferRequested",
      "type": "event"
    },
    {
      "anonymous": false,
      "inputs": [
        {
          "indexed": true,
          "internalType": "address",
          "name": "from",
          "type": "address"
        },
        {
          "indexed": true,
          "internalType": "address",
          "name": "to",
          "type": "address"
        }
      ],
      "name": "OwnershipTransferred",
      "type": "event"
    },
    {
      "anonymous": false,
      "inputs": [
        {
          "indexed": true,
          "internalType": "uint256",
          "name": "requestId",
          "type": "uint256"
        },
        {
          "indexed": true,
          "internalType": "address",
          "name": "consumer",
          "type": "address"
        }
      ],
      "name": "WrapperFulfillmentFailed",
      "type": "event"
    },
    {
      "inputs": [],
      "name": "COORDINATOR",
      "outputs": [
        {
          "internalType": "contract ExtendedVRFCoordinatorV2Interface",
          "name": "",
          "type": "address"
        }
      ],
      "stateMutability": "view",
      "type": "function"
    },
    {
      "inputs": [],
      "name": "LINK",
      "outputs": [
        {
          "internalType": "contract LinkTokenInterface",
          "name": "",
          "type": "address"
        }
      ],
      "stateMutability": "view",
      "type": "function"
    },
    {
      "inputs": [],
      "name": "LINK_ETH_FEED",
      "outputs": [
        {
          "internalType": "contract AggregatorV3Interface",
          "name": "",
          "type": "address"
        }
      ],
      "stateMutability": "view",
      "type": "function"
    },
    {
      "inputs": [],
      "name": "SUBSCRIPTION_ID",
      "outputs": [
        {
          "internalType": "uint64",
          "name": "",
          "type": "uint64"
        }
      ],
      "stateMutability": "view",
      "type": "function"
    },
    {
      "inputs": [],
      "name": "acceptOwnership",
      "outputs": [],
      "stateMutability": "nonpayable",
      "type": "function"
    },
    {
      "inputs": [
        {
          "internalType": "uint32",
          "name": "_callbackGasLimit",
          "type": "uint32"
        }
      ],
      "name": "calculateRequestPrice",
      "outputs": [
        {
          "internalType": "uint256",
          "name": "",
          "type": "uint256"
        }
      ],
      "stateMutability": "view",
      "type": "function"
    },
    {
      "inputs": [],
      "name": "disable",
      "outputs": [],
      "stateMutability": "nonpayable",
      "type": "function"
    },
    {
      "inputs": [],
      "name": "enable",
      "outputs": [],
      "stateMutability": "nonpayable",
      "type": "function"
    },
    {
      "inputs": [
        {
          "internalType": "uint32",
          "name": "_callbackGasLimit",
          "type": "uint32"
        },
        {
          "internalType": "uint256",
          "name": "_requestGasPriceWei",
          "type": "uint256"
        }
      ],
      "name": "estimateRequestPrice",
      "outputs": [
        {
          "internalType": "uint256",
          "name": "",
          "type": "uint256"
        }
      ],
      "stateMutability": "view",
      "type": "function"
    },
    {
      "inputs": [],
      "name": "getConfig",
      "outputs": [
        {
          "internalType": "int256",
          "name": "fallbackWeiPerUnitLink",
          "type": "int256"
        },
        {
          "internalType": "uint32",
          "name": "stalenessSeconds",
          "type": "uint32"
        },
        {
          "internalType": "uint32",
          "name": "fulfillmentFlatFeeLinkPPM",
          "type": "uint32"
        },
        {
          "internalType": "uint32",
          "name": "wrapperGasOverhead",
          "type": "uint32"
        },
        {
          "internalType": "uint32",
          "name": "coordinatorGasOverhead",
          "type": "uint32"
        },
        {
          "internalType": "uint8",
          "name": "wrapperPremiumPercentage",
          "type": "uint8"
        },
        {
          "internalType": "bytes32",
          "name": "keyHash",
          "type": "bytes32"
        },
        {
          "internalType": "uint8",
          "name": "maxNumWords",
          "type": "uint8"
        }
      ],
      "stateMutability": "view",
      "type": "function"
    },
    {
      "inputs": [],
      "name": "lastRequestId",
      "outputs": [
        {
          "internalType": "uint256",
          "name": "",
          "type": "uint256"
        }
      ],
      "stateMutability": "view",
      "type": "function"
    },
    {
      "inputs": [
        {
          "internalType": "address",
          "name": "_sender",
          "type": "address"
        },
        {
          "internalType": "uint256",
          "name": "_amount",
          "type": "uint256"
        },
        {
          "internalType": "bytes",
          "name": "_data",
          "type": "bytes"
        }
      ],
      "name": "onTokenTransfer",
      "outputs": [],
      "stateMutability": "nonpayable",
      "type": "function"
    },
    {
      "inputs": [],
      "name": "owner",
      "outputs": [
        {
          "internalType": "address",
          "name": "",
          "type": "address"
        }
      ],
      "stateMutability": "view",
      "type": "function"
    },
    {
      "inputs": [
        {
          "internalType": "uint256",
          "name": "requestId",
          "type": "uint256"
        },
        {
          "internalType": "uint256[]",
          "name": "randomWords",
          "type": "uint256[]"
        }
      ],
      "name": "rawFulfillRandomWords",
      "outputs": [],
      "stateMutability": "nonpayable",
      "type": "function"
    },
    {
      "inputs": [
        {
          "internalType": "uint256",
          "name": "",
          "type": "uint256"
        }
      ],
      "name": "s_callbacks",
      "outputs": [
        {
          "internalType": "address",
          "name": "callbackAddress",
          "type": "address"
        },
        {
          "internalType": "uint32",
          "name": "callbackGasLimit",
          "type": "uint32"
        },
        {
          "internalType": "uint256",
          "name": "requestGasPrice",
          "type": "uint256"
        },
        {
          "internalType": "int256",
          "name": "requestWeiPerUnitLink",
          "type": "int256"
        },
        {
          "internalType": "uint256",
          "name": "juelsPaid",
          "type": "uint256"
        }
      ],
      "stateMutability": "view",
      "type": "function"
    },
    {
      "inputs": [],
      "name": "s_configured",
      "outputs": [
        {
          "internalType": "bool",
          "name": "",
          "type": "bool"
        }
      ],
      "stateMutability": "view",
      "type": "function"
    },
    {
      "inputs": [],
      "name": "s_disabled",
      "outputs": [
        {
          "internalType": "bool",
          "name": "",
          "type": "bool"
        }
      ],
      "stateMutability": "view",
      "type": "function"
    },
    {
      "inputs": [
        {
          "internalType": "uint32",
          "name": "_wrapperGasOverhead",
          "type": "uint32"
        },
        {
          "internalType": "uint32",
          "name": "_coordinatorGasOverhead",
          "type": "uint32"
        },
        {
          "internalType": "uint8",
          "name": "_wrapperPremiumPercentage",
          "type": "uint8"
        },
        {
          "internalType": "bytes32",
          "name": "_keyHash",
          "type": "bytes32"
        },
        {
          "internalType": "uint8",
          "name": "_maxNumWords",
          "type": "uint8"
        }
      ],
      "name": "setConfig",
      "outputs": [],
      "stateMutability": "nonpayable",
      "type": "function"
    },
    {
      "inputs": [
        {
          "internalType": "address",
          "name": "to",
          "type": "address"
        }
      ],
      "name": "transferOwnership",
      "outputs": [],
      "stateMutability": "nonpayable",
      "type": "function"
    },
    {
      "inputs": [],
      "name": "typeAndVersion",
      "outputs": [
        {
          "internalType": "string",
          "name": "",
          "type": "string"
        }
      ],
      "stateMutability": "pure",
      "type": "function"
    },
    {
      "inputs": [
        {
          "internalType": "address",
          "name": "_recipient",
          "type": "address"
        },
        {
          "internalType": "uint256",
          "name": "_amount",
          "type": "uint256"
        }
      ],
      "name": "withdraw",
      "outputs": [],
      "stateMutability": "nonpayable",
      "type": "function"
    }
  ],
  "bytecode": "0x6101206040523480156200001257600080fd5b5060405162003503380380620035038339818101604052810190620000389190620004c4565b80338060008073ffffffffffffffffffffffffffffffffffffffff168273ffffffffffffffffffffffffffffffffffffffff161415620000af576040517f08c379a0000000000000000000000000000000000000000000000000000000008152600401620000a69062000581565b60405180910390fd5b816000806101000a81548173ffffffffffffffffffffffffffffffffffffffff021916908373ffffffffffffffffffffffffffffffffffffffff160217905550600073ffffffffffffffffffffffffffffffffffffffff168173ffffffffffffffffffffffffffffffffffffffff1614620001365762000135816200032a60201b60201c565b5b5050508073ffffffffffffffffffffffffffffffffffffffff1660808173ffffffffffffffffffffffffffffffffffffffff1681525050508273ffffffffffffffffffffffffffffffffffffffff1660a08173ffffffffffffffffffffffffffffffffffffffff16815250508173ffffffffffffffffffffffffffffffffffffffff1660c08173ffffffffffffffffffffffffffffffffffffffff16815250508073ffffffffffffffffffffffffffffffffffffffff1660e08173ffffffffffffffffffffffffffffffffffffffff168152505060008173ffffffffffffffffffffffffffffffffffffffff1663a21a23e46040518163ffffffff1660e01b8152600401602060405180830381600087803b1580156200025557600080fd5b505af11580156200026a573d6000803e3d6000fd5b505050506040513d601f19601f82011682018060405250810190620002909190620005e8565b90508067ffffffffffffffff166101008167ffffffffffffffff16815250508173ffffffffffffffffffffffffffffffffffffffff16637341c10c82306040518363ffffffff1660e01b8152600401620002ec9291906200063c565b600060405180830381600087803b1580156200030757600080fd5b505af11580156200031c573d6000803e3d6000fd5b5050505050505050620006db565b3373ffffffffffffffffffffffffffffffffffffffff168173ffffffffffffffffffffffffffffffffffffffff1614156200039c576040517f08c379a00000000000000000000000000000000000000000000000000000000081526004016200039390620006b9565b60405180910390fd5b80600160006101000a81548173ffffffffffffffffffffffffffffffffffffffff021916908373ffffffffffffffffffffffffffffffffffffffff1602179055508073ffffffffffffffffffffffffffffffffffffffff1660008054906101000a900473ffffffffffffffffffffffffffffffffffffffff1673ffffffffffffffffffffffffffffffffffffffff167fed8889f560326eb138920d842192f0eb3dd22b4f139c87a2c57538e05bae127860405160405180910390a350565b600080fd5b600073ffffffffffffffffffffffffffffffffffffffff82169050919050565b60006200048c826200045f565b9050919050565b6200049e816200047f565b8114620004aa57600080fd5b50565b600081519050620004be8162000493565b92915050565b600080600060608486031215620004e057620004df6200045a565b5b6000620004f086828701620004ad565b93505060206200050386828701620004ad565b92505060406200051686828701620004ad565b9150509250925092565b600082825260208201905092915050565b7f43616e6e6f7420736574206f776e657220746f207a65726f0000000000000000600082015250565b60006200056960188362000520565b9150620005768262000531565b602082019050919050565b600060208201905081810360008301526200059c816200055a565b9050919050565b600067ffffffffffffffff82169050919050565b620005c281620005a3565b8114620005ce57600080fd5b50565b600081519050620005e281620005b7565b92915050565b6000602082840312156200060157620006006200045a565b5b60006200061184828501620005d1565b91505092915050565b6200062581620005a3565b82525050565b62000636816200047f565b82525050565b60006040820190506200065360008301856200061a565b6200066260208301846200062b565b9392505050565b7f43616e6e6f74207472616e7366657220746f2073656c66000000000000000000600082015250565b6000620006a160178362000520565b9150620006ae8262000669565b602082019050919050565b60006020820190508181036000830152620006d48162000692565b9050919050565b60805160a05160c05160e05161010051612da46200075f600039600081816103af0152610b7a01526000818161051901528181610b3b01528181610e0c01528181610ed60152610f7a015260008181610d460152611514015260008181610410015281816109c5015261111c01526000818161043401526104880152612da46000f3fe608060405234801561001057600080fd5b50600436106101375760003560e01c80637fb5d19d116100b8578063ad1783611161007c578063ad178361146102f8578063c15ce4d714610316578063c3f909d414610332578063f2fde38b14610357578063f3fef3a314610373578063fc2a88c31461038f57610137565b80637fb5d19d146102665780638da5cb5b14610296578063a3907d71146102b4578063a4c0ed36146102be578063a608a1e1146102da57610137565b80633b2bcbf1116100ff5780633b2bcbf1146101bc5780634306d354146101da57806348baa1c51461020a57806357a8070a1461023e57806379ba50971461025c57610137565b8063030932bb1461013c578063181f5a771461015a5780631b6b6d23146101785780631fe543e3146101965780632f2770db146101b2575b600080fd5b6101446103ad565b60405161015191906118fa565b60405180910390f35b6101626103d1565b60405161016f91906119ae565b60405180910390f35b61018061040e565b60405161018d9190611a4f565b60405180910390f35b6101b060048036038101906101ab9190611bfc565b610432565b005b6101ba6104f2565b005b6101c4610517565b6040516101d19190611c79565b60405180910390f35b6101f460048036038101906101ef9190611cd0565b61053b565b6040516102019190611d0c565b60405180910390f35b610224600480360381019061021f9190611d27565b610601565b604051610235959493929190611d9d565b60405180910390f35b610246610667565b6040516102539190611e0b565b60405180910390f35b61026461067a565b005b610280600480360381019061027b9190611e26565b61080f565b60405161028d9190611d0c565b60405180910390f35b61029e6108d6565b6040516102ab9190611e66565b60405180910390f35b6102bc6108ff565b005b6102d860048036038101906102d39190611f08565b610924565b005b6102e2610d31565b6040516102ef9190611e0b565b60405180910390f35b610300610d44565b60405161030d9190611f9d565b60405180910390f35b610330600480360381019061032b9190612027565b610d68565b005b61033a611066565b60405161034e9897969594939291906120c0565b60405180910390f35b610371600480360381019061036c919061213e565b6110fe565b005b61038d6004803603810190610388919061216b565b611112565b005b6103976111cc565b6040516103a49190611d0c565b60405180910390f35b7f000000000000000000000000000000000000000000000000000000000000000081565b60606040518060400160405280601281526020017f56524656325772617070657220312e302e300000000000000000000000000000815250905090565b7f000000000000000000000000000000000000000000000000000000000000000081565b7f000000000000000000000000000000000000000000000000000000000000000073ffffffffffffffffffffffffffffffffffffffff163373ffffffffffffffffffffffffffffffffffffffff16146104e457337f00000000000000000000000000000000000000000000000000000000000000006040517f1cf993f40000000000000000000000000000000000000000000000000000000081526004016104db9291906121ab565b60405180910390fd5b6104ee82826111d2565b5050565b6104fa61145e565b6001600360016101000a81548160ff021916908315150217905550565b7f000000000000000000000000000000000000000000000000000000000000000081565b6000600360009054906101000a900460ff1661058c576040517f08c379a000000000000000000000000000000000000000000000000000000000815260040161058390612220565b60405180910390fd5b600360019054906101000a900460ff16156105dc576040517f08c379a00000000000000000000000000000000000000000000000000000000081526004016105d39061228c565b60405180910390fd5b60006105e66114ee565b90506105f98363ffffffff163a83611648565b915050919050565b60086020528060005260406000206000915090508060000160009054906101000a900473ffffffffffffffffffffffffffffffffffffffff16908060000160149054906101000a900463ffffffff16908060010154908060020154908060030154905085565b600360009054906101000a900460ff1681565b600160009054906101000a900473ffffffffffffffffffffffffffffffffffffffff1673ffffffffffffffffffffffffffffffffffffffff163373ffffffffffffffffffffffffffffffffffffffff161461070a576040517f08c379a0000000000000000000000000000000000000000000000000000000008152600401610701906122f8565b60405180910390fd5b60008060009054906101000a900473ffffffffffffffffffffffffffffffffffffffff169050336000806101000a81548173ffffffffffffffffffffffffffffffffffffffff021916908373ffffffffffffffffffffffffffffffffffffffff1602179055506000600160006101000a81548173ffffffffffffffffffffffffffffffffffffffff021916908373ffffffffffffffffffffffffffffffffffffffff1602179055503373ffffffffffffffffffffffffffffffffffffffff168173ffffffffffffffffffffffffffffffffffffffff167f8be0079c531659141344cd1fd0a4f28419497f9722a3daafe3b4186f6b6457e060405160405180910390a350565b6000600360009054906101000a900460ff16610860576040517f08c379a000000000000000000000000000000000000000000000000000000000815260040161085790612220565b60405180910390fd5b600360019054906101000a900460ff16156108b0576040517f08c379a00000000000000000000000000000000000000000000000000000000081526004016108a79061228c565b60405180910390fd5b60006108ba6114ee565b90506108cd8463ffffffff168483611648565b91505092915050565b60008060009054906101000a900473ffffffffffffffffffffffffffffffffffffffff16905090565b61090761145e565b6000600360016101000a81548160ff021916908315150217905550565b600360009054906101000a900460ff16610973576040517f08c379a000000000000000000000000000000000000000000000000000000000815260040161096a90612220565b60405180910390fd5b600360019054906101000a900460ff16156109c3576040517f08c379a00000000000000000000000000000000000000000000000000000000081526004016109ba9061228c565b60405180910390fd5b7f000000000000000000000000000000000000000000000000000000000000000073ffffffffffffffffffffffffffffffffffffffff163373ffffffffffffffffffffffffffffffffffffffff1614610a51576040517f08c379a0000000000000000000000000000000000000000000000000000000008152600401610a4890612364565b60405180910390fd5b60008060008484810190610a6591906123be565b9250925092506000610a768461173b565b90506000610a826114ee565b90506000610a978663ffffffff163a84611648565b905080891015610adc576040517f08c379a0000000000000000000000000000000000000000000000000000000008152600401610ad39061245d565b60405180910390fd5b600760009054906101000a900460ff1660ff168463ffffffff161115610b37576040517f08c379a0000000000000000000000000000000000000000000000000000000008152600401610b2e906124c9565b60405180910390fd5b60007f000000000000000000000000000000000000000000000000000000000000000073ffffffffffffffffffffffffffffffffffffffff16635d3b1d306006547f000000000000000000000000000000000000000000000000000000000000000089600560089054906101000a900463ffffffff16898d610bb99190612518565b610bc39190612518565b8a6040518663ffffffff1660e01b8152600401610be4959493929190612561565b602060405180830381600087803b158015610bfe57600080fd5b505af1158015610c12573d6000803e3d6000fd5b505050506040513d601f19601f82011682018060405250810190610c3691906125c9565b90506040518060a001604052808c73ffffffffffffffffffffffffffffffffffffffff1681526020018863ffffffff1681526020013a81526020018481526020018b8152506008600083815260200190815260200160002060008201518160000160006101000a81548173ffffffffffffffffffffffffffffffffffffffff021916908373ffffffffffffffffffffffffffffffffffffffff16021790555060208201518160000160146101000a81548163ffffffff021916908363ffffffff160217905550604082015181600101556060820151816002015560808201518160030155905050806002819055505050505050505050505050565b600360019054906101000a900460ff1681565b7f000000000000000000000000000000000000000000000000000000000000000081565b610d7061145e565b84600560086101000a81548163ffffffff021916908363ffffffff160217905550836005600c6101000a81548163ffffffff021916908363ffffffff16021790555082600560106101000a81548160ff021916908360ff1602179055508160068190555080600760006101000a81548160ff021916908360ff1602179055506001600360006101000a81548160ff0219169083151502179055507f000000000000000000000000000000000000000000000000000000000000000073ffffffffffffffffffffffffffffffffffffffff1663c3f909d46040518163ffffffff1660e01b815260040160806040518083038186803b158015610e7057600080fd5b505afa158015610e84573d6000803e3d6000fd5b505050506040513d601f19601f82011682018060405250810190610ea89190612620565b9091925090915050600560008291906101000a81548163ffffffff021916908363ffffffff160217905550507f000000000000000000000000000000000000000000000000000000000000000073ffffffffffffffffffffffffffffffffffffffff1663356dac716040518163ffffffff1660e01b815260040160206040518083038186803b158015610f3a57600080fd5b505afa158015610f4e573d6000803e3d6000fd5b505050506040513d601f19601f82011682018060405250810190610f7291906126b3565b6004819055507f000000000000000000000000000000000000000000000000000000000000000073ffffffffffffffffffffffffffffffffffffffff16635fbbc0d26040518163ffffffff1660e01b81526004016101206040518083038186803b158015610fdf57600080fd5b505afa158015610ff3573d6000803e3d6000fd5b505050506040513d601f19601f82011682018060405250810190611017919061271b565b909192939495965090919293949550909192939450909192935090919250909150905050600560048291906101000a81548163ffffffff021916908363ffffffff160217905550505050505050565b600080600080600080600080600454600560009054906101000a900463ffffffff16600560049054906101000a900463ffffffff16600560089054906101000a900463ffffffff166005600c9054906101000a900463ffffffff16600560109054906101000a900460ff16600654600760009054906101000a900460ff16975097509750975097509750975097509091929394959697565b61110661145e565b61110f8161175d565b50565b61111a61145e565b7f000000000000000000000000000000000000000000000000000000000000000073ffffffffffffffffffffffffffffffffffffffff1663a9059cbb83836040518363ffffffff1660e01b81526004016111759291906127e5565b602060405180830381600087803b15801561118f57600080fd5b505af11580156111a3573d6000803e3d6000fd5b505050506040513d601f19601f820116820180604052508101906111c7919061283a565b505050565b60025481565b6000600860008481526020019081526020016000206040518060a00160405290816000820160009054906101000a900473ffffffffffffffffffffffffffffffffffffffff1673ffffffffffffffffffffffffffffffffffffffff1673ffffffffffffffffffffffffffffffffffffffff1681526020016000820160149054906101000a900463ffffffff1663ffffffff1663ffffffff1681526020016001820154815260200160028201548152602001600382015481525050905060086000848152602001908152602001600020600080820160006101000a81549073ffffffffffffffffffffffffffffffffffffffff02191690556000820160146101000a81549063ffffffff02191690556001820160009055600282016000905560038201600090555050600073ffffffffffffffffffffffffffffffffffffffff16816000015173ffffffffffffffffffffffffffffffffffffffff16141561136e576040517f08c379a0000000000000000000000000000000000000000000000000000000008152600401611365906128b3565b60405180910390fd5b600080631fe543e360e01b858560405160240161138c929190612991565b604051602081830303815290604052907bffffffffffffffffffffffffffffffffffffffffffffffffffffffff19166020820180517bffffffffffffffffffffffffffffffffffffffffffffffffffffffff838183161783525050505090506000611406846020015163ffffffff1685600001518461188a565b90508061145657836000015173ffffffffffffffffffffffffffffffffffffffff16867fc551b83c151f2d1c7eeb938ac59008e0409f1c1dc1e2f112449d4d79b458902260405160405180910390a35b505050505050565b60008054906101000a900473ffffffffffffffffffffffffffffffffffffffff1673ffffffffffffffffffffffffffffffffffffffff163373ffffffffffffffffffffffffffffffffffffffff16146114ec576040517f08c379a00000000000000000000000000000000000000000000000000000000081526004016114e390612a0d565b60405180910390fd5b565b6000806000600560009054906101000a900463ffffffff1663ffffffff161190506000807f000000000000000000000000000000000000000000000000000000000000000073ffffffffffffffffffffffffffffffffffffffff1663feaf968c6040518163ffffffff1660e01b815260040160a06040518083038186803b15801561157857600080fd5b505afa15801561158c573d6000803e3d6000fd5b505050506040513d601f19601f820116820180604052508101906115b09190612a6f565b90919293509091505080935081925050508280156115f0575081426115d59190612aea565b600560009054906101000a900463ffffffff1663ffffffff16105b156115fb5760045490505b600081121561163f576040517f08c379a000000000000000000000000000000000000000000000000000000000815260040161163690612b6a565b60405180910390fd5b80935050505090565b600080826005600c9054906101000a900463ffffffff1663ffffffff16600560089054906101000a900463ffffffff1663ffffffff16876116899190612b8a565b6116939190612b8a565b85670de0b6b3a76400006116a79190612be0565b6116b19190612be0565b6116bb9190612c69565b90506000606480600560109054906101000a900460ff166116dc9190612c9a565b60ff16836116ea9190612be0565b6116f49190612c69565b90506000600560049054906101000a900463ffffffff1663ffffffff1664e8d4a510006117219190612be0565b8261172c9190612b8a565b90508093505050509392505050565b60006001603f8361174c9190612cd1565b6117569190612518565b9050919050565b3373ffffffffffffffffffffffffffffffffffffffff168173ffffffffffffffffffffffffffffffffffffffff1614156117cc576040517f08c379a00000000000000000000000000000000000000000000000000000000081526004016117c390612d4e565b60405180910390fd5b80600160006101000a81548173ffffffffffffffffffffffffffffffffffffffff021916908373ffffffffffffffffffffffffffffffffffffffff1602179055508073ffffffffffffffffffffffffffffffffffffffff1660008054906101000a900473ffffffffffffffffffffffffffffffffffffffff1673ffffffffffffffffffffffffffffffffffffffff167fed8889f560326eb138920d842192f0eb3dd22b4f139c87a2c57538e05bae127860405160405180910390a350565b60005a61138881101561189c57600080fd5b6113888103905084604082048203116118b457600080fd5b833b6118bf57600080fd5b6000808451602086016000888af19150509392505050565b600067ffffffffffffffff82169050919050565b6118f4816118d7565b82525050565b600060208201905061190f60008301846118eb565b92915050565b600081519050919050565b600082825260208201905092915050565b60005b8381101561194f578082015181840152602081019050611934565b8381111561195e576000848401525b50505050565b6000601f19601f8301169050919050565b600061198082611915565b61198a8185611920565b935061199a818560208601611931565b6119a381611964565b840191505092915050565b600060208201905081810360008301526119c88184611975565b905092915050565b600073ffffffffffffffffffffffffffffffffffffffff82169050919050565b6000819050919050565b6000611a15611a10611a0b846119d0565b6119f0565b6119d0565b9050919050565b6000611a27826119fa565b9050919050565b6000611a3982611a1c565b9050919050565b611a4981611a2e565b82525050565b6000602082019050611a646000830184611a40565b92915050565b6000604051905090565b600080fd5b600080fd5b6000819050919050565b611a9181611a7e565b8114611a9c57600080fd5b50565b600081359050611aae81611a88565b92915050565b600080fd5b7f4e487b7100000000000000000000000000000000000000000000000000000000600052604160045260246000fd5b611af182611964565b810181811067ffffffffffffffff82111715611b1057611b0f611ab9565b5b80604052505050565b6000611b23611a6a565b9050611b2f8282611ae8565b919050565b600067ffffffffffffffff821115611b4f57611b4e611ab9565b5b602082029050602081019050919050565b600080fd5b6000611b78611b7384611b34565b611b19565b90508083825260208201905060208402830185811115611b9b57611b9a611b60565b5b835b81811015611bc45780611bb08882611a9f565b845260208401935050602081019050611b9d565b5050509392505050565b600082601f830112611be357611be2611ab4565b5b8135611bf3848260208601611b65565b91505092915050565b60008060408385031215611c1357611c12611a74565b5b6000611c2185828601611a9f565b925050602083013567ffffffffffffffff811115611c4257611c41611a79565b5b611c4e85828601611bce565b9150509250929050565b6000611c6382611a1c565b9050919050565b611c7381611c58565b82525050565b6000602082019050611c8e6000830184611c6a565b92915050565b600063ffffffff82169050919050565b611cad81611c94565b8114611cb857600080fd5b50565b600081359050611cca81611ca4565b92915050565b600060208284031215611ce657611ce5611a74565b5b6000611cf484828501611cbb565b91505092915050565b611d0681611a7e565b82525050565b6000602082019050611d216000830184611cfd565b92915050565b600060208284031215611d3d57611d3c611a74565b5b6000611d4b84828501611a9f565b91505092915050565b6000611d5f826119d0565b9050919050565b611d6f81611d54565b82525050565b611d7e81611c94565b82525050565b6000819050919050565b611d9781611d84565b82525050565b600060a082019050611db26000830188611d66565b611dbf6020830187611d75565b611dcc6040830186611cfd565b611dd96060830185611d8e565b611de66080830184611cfd565b9695505050505050565b60008115159050919050565b611e0581611df0565b82525050565b6000602082019050611e206000830184611dfc565b92915050565b60008060408385031215611e3d57611e3c611a74565b5b6000611e4b85828601611cbb565b9250506020611e5c85828601611a9f565b9150509250929050565b6000602082019050611e7b6000830184611d66565b92915050565b611e8a81611d54565b8114611e9557600080fd5b50565b600081359050611ea781611e81565b92915050565b600080fd5b60008083601f840112611ec857611ec7611ab4565b5b8235905067ffffffffffffffff811115611ee557611ee4611ead565b5b602083019150836001820283011115611f0157611f00611b60565b5b9250929050565b60008060008060608587031215611f2257611f21611a74565b5b6000611f3087828801611e98565b9450506020611f4187828801611a9f565b935050604085013567ffffffffffffffff811115611f6257611f61611a79565b5b611f6e87828801611eb2565b925092505092959194509250565b6000611f8782611a1c565b9050919050565b611f9781611f7c565b82525050565b6000602082019050611fb26000830184611f8e565b92915050565b600060ff82169050919050565b611fce81611fb8565b8114611fd957600080fd5b50565b600081359050611feb81611fc5565b92915050565b6000819050919050565b61200481611ff1565b811461200f57600080fd5b50565b60008135905061202181611ffb565b92915050565b600080600080600060a0868803121561204357612042611a74565b5b600061205188828901611cbb565b955050602061206288828901611cbb565b945050604061207388828901611fdc565b935050606061208488828901612012565b925050608061209588828901611fdc565b9150509295509295909350565b6120ab81611fb8565b82525050565b6120ba81611ff1565b82525050565b6000610100820190506120d6600083018b611d8e565b6120e3602083018a611d75565b6120f06040830189611d75565b6120fd6060830188611d75565b61210a6080830187611d75565b61211760a08301866120a2565b61212460c08301856120b1565b61213160e08301846120a2565b9998505050505050505050565b60006020828403121561215457612153611a74565b5b600061216284828501611e98565b91505092915050565b6000806040838503121561218257612181611a74565b5b600061219085828601611e98565b92505060206121a185828601611a9f565b9150509250929050565b60006040820190506121c06000830185611d66565b6121cd6020830184611d66565b9392505050565b7f77726170706572206973206e6f7420636f6e6669677572656400000000000000600082015250565b600061220a601983611920565b9150612215826121d4565b602082019050919050565b60006020820190508181036000830152612239816121fd565b9050919050565b7f777261707065722069732064697361626c656400000000000000000000000000600082015250565b6000612276601383611920565b915061228182612240565b602082019050919050565b600060208201905081810360008301526122a581612269565b9050919050565b7f4d7573742062652070726f706f736564206f776e657200000000000000000000600082015250565b60006122e2601683611920565b91506122ed826122ac565b602082019050919050565b60006020820190508181036000830152612311816122d5565b9050919050565b7f6f6e6c792063616c6c61626c652066726f6d204c494e4b000000000000000000600082015250565b600061234e601783611920565b915061235982612318565b602082019050919050565b6000602082019050818103600083015261237d81612341565b9050919050565b600061ffff82169050919050565b61239b81612384565b81146123a657600080fd5b50565b6000813590506123b881612392565b92915050565b6000806000606084860312156123d7576123d6611a74565b5b60006123e586828701611cbb565b93505060206123f6868287016123a9565b925050604061240786828701611cbb565b9150509250925092565b7f66656520746f6f206c6f77000000000000000000000000000000000000000000600082015250565b6000612447600b83611920565b915061245282612411565b602082019050919050565b600060208201905081810360008301526124768161243a565b9050919050565b7f6e756d576f72647320746f6f2068696768000000000000000000000000000000600082015250565b60006124b3601183611920565b91506124be8261247d565b602082019050919050565b600060208201905081810360008301526124e2816124a6565b9050919050565b7f4e487b7100000000000000000000000000000000000000000000000000000000600052601160045260246000fd5b600061252382611c94565b915061252e83611c94565b92508263ffffffff03821115612547576125466124e9565b5b828201905092915050565b61255b81612384565b82525050565b600060a08201905061257660008301886120b1565b61258360208301876118eb565b6125906040830186612552565b61259d6060830185611d75565b6125aa6080830184611d75565b9695505050505050565b6000815190506125c381611a88565b92915050565b6000602082840312156125df576125de611a74565b5b60006125ed848285016125b4565b91505092915050565b60008151905061260581612392565b92915050565b60008151905061261a81611ca4565b92915050565b6000806000806080858703121561263a57612639611a74565b5b6000612648878288016125f6565b94505060206126598782880161260b565b935050604061266a8782880161260b565b925050606061267b8782880161260b565b91505092959194509250565b61269081611d84565b811461269b57600080fd5b50565b6000815190506126ad81612687565b92915050565b6000602082840312156126c9576126c8611a74565b5b60006126d78482850161269e565b91505092915050565b600062ffffff82169050919050565b6126f8816126e0565b811461270357600080fd5b50565b600081519050612715816126ef565b92915050565b60008060008060008060008060006101208a8c03121561273e5761273d611a74565b5b600061274c8c828d0161260b565b995050602061275d8c828d0161260b565b985050604061276e8c828d0161260b565b975050606061277f8c828d0161260b565b96505060806127908c828d0161260b565b95505060a06127a18c828d01612706565b94505060c06127b28c828d01612706565b93505060e06127c38c828d01612706565b9250506101006127d58c828d01612706565b9150509295985092959850929598565b60006040820190506127fa6000830185611d66565b6128076020830184611cfd565b9392505050565b61281781611df0565b811461282257600080fd5b50565b6000815190506128348161280e565b92915050565b6000602082840312156128505761284f611a74565b5b600061285e84828501612825565b91505092915050565b7f72657175657374206e6f7420666f756e64000000000000000000000000000000600082015250565b600061289d601183611920565b91506128a882612867565b602082019050919050565b600060208201905081810360008301526128cc81612890565b9050919050565b600081519050919050565b600082825260208201905092915050565b6000819050602082019050919050565b61290881611a7e565b82525050565b600061291a83836128ff565b60208301905092915050565b6000602082019050919050565b600061293e826128d3565b61294881856128de565b9350612953836128ef565b8060005b8381101561298457815161296b888261290e565b975061297683612926565b925050600181019050612957565b5085935050505092915050565b60006040820190506129a66000830185611cfd565b81810360208301526129b88184612933565b90509392505050565b7f4f6e6c792063616c6c61626c65206279206f776e657200000000000000000000600082015250565b60006129f7601683611920565b9150612a02826129c1565b602082019050919050565b60006020820190508181036000830152612a26816129ea565b9050919050565b600069ffffffffffffffffffff82169050919050565b612a4c81612a2d565b8114612a5757600080fd5b50565b600081519050612a6981612a43565b92915050565b600080600080600060a08688031215612a8b57612a8a611a74565b5b6000612a9988828901612a5a565b9550506020612aaa8882890161269e565b9450506040612abb888289016125b4565b9350506060612acc888289016125b4565b9250506080612add88828901612a5a565b9150509295509295909350565b6000612af582611a7e565b9150612b0083611a7e565b925082821015612b1357612b126124e9565b5b828203905092915050565b7f496e76616c6964204c494e4b2077656920707269636500000000000000000000600082015250565b6000612b54601683611920565b9150612b5f82612b1e565b602082019050919050565b60006020820190508181036000830152612b8381612b47565b9050919050565b6000612b9582611a7e565b9150612ba083611a7e565b9250827fffffffffffffffffffffffffffffffffffffffffffffffffffffffffffffffff03821115612bd557612bd46124e9565b5b828201905092915050565b6000612beb82611a7e565b9150612bf683611a7e565b9250817fffffffffffffffffffffffffffffffffffffffffffffffffffffffffffffffff0483118215151615612c2f57612c2e6124e9565b5b828202905092915050565b7f4e487b7100000000000000000000000000000000000000000000000000000000600052601260045260246000fd5b6000612c7482611a7e565b9150612c7f83611a7e565b925082612c8f57612c8e612c3a565b5b828204905092915050565b6000612ca582611fb8565b9150612cb083611fb8565b92508260ff03821115612cc657612cc56124e9565b5b828201905092915050565b6000612cdc82611c94565b9150612ce783611c94565b925082612cf757612cf6612c3a565b5b828204905092915050565b7f43616e6e6f74207472616e7366657220746f2073656c66000000000000000000600082015250565b6000612d38601783611920565b9150612d4382612d02565b602082019050919050565b60006020820190508181036000830152612d6781612d2b565b905091905056fea264697066735822122019f4c79900ed01950ffa769e28629217f45e63a3826d83ad4cb348d9299413e964736f6c63430008090033",
  "linkReferences": {},
  "deployedLinkReferences": {}
}